:020000040800F2
:10000000B03B00207502000831210008571100089C
:10001000F11C0008770C00085D4F0008000000008C
:100020000000000000000000000000005D3C00082F
:10003000F10C000800000000F902000891440008DB
:100040008F0200088F0200088F0200088F0200084C
:100050008F0200088F0200088F0200088F0200083C
:100060008F0200088F0200088F0200088F0200082C
:100070008F0200088F0200088F0200088F0200081C
:100080008F0200088F0200088F02000800000000A5
:100090000000000000000000000000008F020008C7
:1000A0008F0200088F0200088F0200088F020008EC
:1000B0008F020008A34600088F0200088F02000884
:1000C0008F0200088F0200088F0200088F020008CC
:1000D0008F0200088F020008894D00080000000010
:1000E0008F0200088F0200088F0200080000000045
:1000F0000000000000000000000000008F02000867
:10010000000000008F020008A54600088F020008CA
:1001100000000000000000000000000000000000DF
:100120008F0200088F0200088F0200088F0200086B
:100130008F02000800000000000000000000000026
:100140000000000000000000000000008F02000816
:100150008F0200088F0200088F020008B54D0008CA
:100160008F0200088F02000800000000000000005D
:10017000000000000000000000000000000000007F
:10018000000000008F0200080000000000000000D6
:100190008F02000800F002F800F05CF80AA090E876
:1001A000000C82448344AAF10107DA4501D100F032
:1001B00051F8AFF2090EBAE80F0013F0010F18BFA3
:1001C000FB1A43F001031847B87F0000D87F0000F6
:1001D0000A444FF0000C10F8013B13F0070408BF6D
:1001E00010F8014B1D1108BF10F8015B641E05D00B
:1001F00010F8016B641E01F8016BF9D113F0080FC0
:100200001EBF10F8014BAD1C0C1B09D16D1E58BF51
:1002100001F801CBFAD505E014F8016B01F8016B88
:100220006D1EF9D59142D6D37047000000230024FB
:1002300000250026103A28BF78C1FBD8520728BFF6
:1002400030C148BF0B6070471FB507F04AFD1FBDA6
:1002500010B510BD00F098F81146FFF7F5FF06F055
:10026000A7FE00F0B6F803B4FFF7F2FF03BC00F0FE
:10027000B7F800000948804709480047FEE7FEE755
:10028000FEE7FEE7FEE7FEE7FEE7FEE7FEE7FEE746
:1002900004480549054A064B704700001945000807
:1002A00095010008B0350020B03B0020B037002099
:1002B000B0370020EFF3108072B6704780F31088DB
:1002C00070471E484FF0FF0101604FF0000080F3BF
:1002D00009881B484FF0010101601A484FF0805116
:1002E000016062B617484FF08051016070471548B1
:1002F0004FF080510160704772B6EFF3098020B172
:1003000020E9F00F10490968086000B50F488047E0
:100310005DF804EB0E480C49006808600D480E4972
:10032000007808700A4800680168B1E8F00F81F3AE
:1003300009884EF0040E62B6704700BF22ED00E05F
:100340007101002004ED00E0780100202127000861
:10035000800100206701002066010020704770477F
:10036000704710B500F008F8006810BD10B50446DD
:1003700000F002F8046010BD004870474C350020C2
:10038000004870474C3500207546FFF7F9FFAE4630
:1003900005006946534620F00700854618B020B591
:1003A000FFF776FFBDE820404FF000064FF0000752
:1003B0004FF000084FF0000B21F00701AC46ACE80D
:1003C000C009ACE8C009ACE8C009ACE8C0098D467A
:1003D00070470446AFF300802046FFF744FF00005B
:1003E00001491820ABBEFEE72600020070470EB59B
:1003F0000121084603F08EFB4FF0804004F0C6F95F
:100400004FF6FF7001905320ADF800000020ADF8CA
:100410000800ADF8020069464FF0804004F0EAFAA7
:100420000121880704F0A6F90EBD000000B52DEDEE
:10043000108BA1B0B0EE40AAF0EE60AAB0EE41BAC7
:10044000F0EE61FAF0EE42BAB0EE62CAF0EE439A14
:10045000F0EE638AB0EE449AFE4890ED000A20EE7A
:10046000000A8DED110A90ED000AFB48D0ED000A5C
:1004700020EE200AF0EE40EAF64890ED000AF74838
:10048000D0ED000A20EE200A8DED100AF14890ED23
:10049000000AF348D0ED000A20EE200A8DED0F0A85
:1004A000ED4890ED000A20EE000AB0EE40FA90ED23
:1004B000000AEA48D0ED000A20EE200A8DED0E0A6F
:1004C000E54890ED000AE648D0ED000A20EE200A4B
:1004D0008DED0D0AE14890ED000A20EE000A8DED49
:1004E0000C0A90ED000ADE48D0ED000A20EE200A4A
:1004F0008DED0B0A90ED000A20EE000A8DED0A0A40
:100500006FEEAF0A4BEEAB0A4CEE0C0AB0EE600A8F
:1005100006F030FDB0EE408A2FEE880AF0EE40FA89
:100520002BEE880AF0EE40BA2CEE080AB0EE40CA74
:100530009DED0D0ADDED100A30EE600AF0EE000AC6
:1005400020EE200A8DED1A0A9DED0B0A3EEE800A80
:10055000F0EE000A20EE200A8DED190A9DED110A39
:1005600070EE4F0A9DED0C0A70EEC00A9DED0A0A6E
:1005700030EE800A8DED180A69EEA90A48EEA80A45
:1005800049EE090AB0EE600A06F0F4FCB0EE408ACB
:1005900029EE880AF0EE409A28EE880AF0EE408AAA
:1005A00029EE080AB0EE409AB0EE000A69EE800A21
:1005B0009DED0C0AB6EE001A31EE401A9DED0A0AC6
:1005C00031EE400A20EE800AF0EE000A68EEA01A32
:1005D000DDED0E0A9DED0F1A70EEC10A01EEA00AC4
:1005E000F0EE000A69EE201ADDED0D0A9DED101AFD
:1005F00070EE810A01EEA00A8DED1F0AB0EE000A2E
:1006000029EE801A9DED0E0ADDED0F0A30EE200A6C
:1006100021EE000AF0EE000A28EEA01AF6EE000A1B
:1006200070EECF1ADDED0A0A71EEE00A01EE200A43
:10063000F0EE000A29EE201ADDED0B0A70EEEE0A4C
:1006400001EE200A8DED1E0AB0EE000A29EE801A96
:100650009DED0D0ADDED100A30EE600A61EE000A34
:10066000B0EE000A28EE801A9DED0B0A70EE2E1AED
:10067000B0EE600A01EE210AF0EE000A29EE201A1F
:10068000F6EE000A70EECF1ADDED0C0A71EEE00A0C
:1006900001EE200A8DED1D0ADDED1F0A20EEA01AE5
:1006A000DDED1E0A00EEA01AB0EE410A05F068FF6B
:1006B0008DED1B0A9DED1D0A8DED1C0A9DED1B0A9B
:1006C000F0EE000A20EE201ADDED0E0A9DED0F0A75
:1006D00030EE800A61EE000A9DED1C0AB0EE001AB1
:1006E00060EE011A9DED0D0A9DED101A30EE410AE3
:1006F00041EE800ACDED170A9DED1B0AF0EE000ACF
:1007000060EE200AB6EE000A30EE4F1A9DED0A0A9E
:1007100031EE400A60EE800A9DED1C0AB0EE001A30
:1007200020EE011A9DED0B0A3EEE800A41EE000A12
:10073000CDED160A9DED1B0AF0EE000A60EE200AD0
:100740009DED0B0A30EE6E0A60EE800A9DED1C0AEC
:10075000B0EE001A20EE011AB6EE000A70EE4F1A43
:100760009DED0C0A31EEC00A41EE000ACDED150AEE
:100770009DED180A6BEE800A9DED190A4CEE400AB9
:100780009DED150A28EE801A9DED160A09EE401A15
:1007900030EE810A8DED140A9DED1A0A2CEE000A46
:1007A000DDED180A0FEEE00ADDED170A29EE201A3A
:1007B000DDED150A09EEE01A30EE010A8DED130A9F
:1007C0009DED190A2FEE800ADDED1A0A0BEEE00A04
:1007D000DDED160A69EEA00A9DED171A48EEC10A72
:1007E00030EE200A8DED120A00F064FC1D4880ED09
:1007F000000A9DED140AB5EEC00AF1EE10FA7CD0A5
:100800009DED130AB5EEC00AF1EE10FA7AD09DED17
:10081000120AB5EEC00AF1EE10FA73D09DED140A7B
:100820001148D0ED000A60EE200A0E4890ED001A43
:100830000E4890ED000A00EE810A80ED000A9DED61
:10084000130A0948D0ED000A60EE200A054890ED31
:10085000001A0DE0A8000020AC000020B00000202D
:10086000B4000020A00000209C000020B800002060
:10087000E24890ED000A00EE810A80ED000A9DED4D
:10088000120ADF48D0ED000A60EE200ADD4890ED44
:10089000001ADD4890ED000A00EE810A80ED000AA2
:1008A000DA4890ED001A9DED140AF0EE4A0A41EE86
:1008B000000AD74890ED000A30EE800AB0EE40AA58
:1008C000D24890ED001A9DED130AF0EE6A0A41EE4F
:1008D000000ACA4890ED000A30EE800AF0EE40AA05
:1008E000CA4890ED001A9DED120AF0EE4B0A41EE57
:1008F000000AC54890ED000A00E003E030EE800AEF
:10090000B0EE40BAC348D0ED00CAC34890ED00DA5B
:10091000C248D0ED00DAC24890ED00EAB1EE4D0ACF
:1009200020EE0A0A0DEEEA0A0EEE4B0AB54890EDEB
:10093000001AF0EE6C0A40EE010AB648C0ED000A5B
:100940002CEE8A0A0DEE8B0A0EEE6A0AAD4890ED87
:10095000001AF0EE4D0A40EE010AAF48C0ED000A61
:100960002CEEAA0A0DEE4B0A0EEE0A0AA54890EDEF
:10097000001AF0EE6D0A40EE010AA848C0ED000A28
:100980002CEE8B0A0DEE2A0A0DEECA0A9D4890ED58
:10099000001AF0EE4E0A40EE010AA148C0ED000A2E
:1009A0009C48D0ED000A60EEA00A9B4890ED001A2A
:1009B000D0ED001A41EE210A984890ED001AD0EDD2
:1009C000001A41EE210A964890ED001AD0ED001A67
:1009D00041EE210AB0EE600A06F0CCFAB0EE408A91
:1009E0008C4890ED000A20EE080A80ED000A8A4843
:1009F00090ED000A20EE080A80ED000A874890ED8D
:100A0000000A20EE080A80ED000A854890ED000AF1
:100A100020EE080A80ED000A7E4890ED000A7F482B
:100A2000D0ED000A20EE200A7B48D0ED000A7C4879
:100A300090ED001A00EEC10AF0EE000A20EE200A46
:100A400010EE101A084607F0DBF8CDE904019DED21
:100A5000040B04F09DFA8DED060B9FED720B53EC29
:100A6000102B9DED060B51EC100B06F0D3FDCDE9DC
:100A700008019DED080B51EC100B06F0EFFA6B49E5
:100A80004860644890ED000A20EE000A6248D0ED0C
:100A9000000A90ED001A00EEC10A6048D0ED000A8D
:100AA00090ED001A00EEC10A5D48D0ED000A90ED0D
:100AB000001A00EE810A10EE101A084607F0A0F89E
:100AC000CDE90201534890ED000A5348D0ED000AE9
:100AD00020EE200A5148D0ED000A514890ED001A4E
:100AE00000EE810AF0EE000A20EE200A10EE101A45
:100AF000084607F085F8CDE900019DED021B9DED4C
:100B0000000B04F061FD8DED040B9DED040B51EC29
:100B1000100B06F096FA9FED430B53EC102BCDE92A
:100B200006019DED060B51EC100B06F073FDCDE9AF
:100B300008019DED080B51EC100B06F08FFA3B49B4
:100B40008860344890ED000A20EE000A3248D0ED6B
:100B5000000A90ED001A00EE810A3048D0ED000A3C
:100B600090ED001A00EEC10A2D48D0ED000A90ED7C
:100B7000001A00EEC10A10EE101A084607F040F8FD
:100B8000CDE90401234890ED000A2548D0ED000A84
:100B900020EE200A2048D0ED000A204890ED001AEF
:100BA00000EE810AF0EE000A20EE200A10EE101A84
:100BB000084607F025F8CDE902019DED041B9DEDE7
:100BC000020B04F001FD8DED060B9FED160B53ECAF
:100BD000102B9DED060B51EC100B06F01BFDCDE923
:100BE00008019DED080B51EC100B06F037FA0F4988
:100BF000086021B0BDEC108B00BD0000BC000020DF
:100C00009C000020A0000020C000002098000020D0
:100C1000B8000020A8000020AC000020B000002098
:100C2000B400002000000020DCA54C40B0010020F2
:100C300010B503F041FC542000F030F84FF4E131DE
:100C4000542004F0BBF800F055FC00BF00F0F1FCAC
:100C50000128FBD100F06EFA01F024F802F036FB17
:100C600002F032FA02F076F902F0DAF802F054F902
:100C7000FFF7BDFB10BD00BFFEE700000448007891
:100C8000044909780843044909780843704700007B
:100C900001000020000000200200002070B5044682
:100CA0006FF0040003F0E0FBE11704EB5171C1F3B6
:100CB000C7010D4A1170E11704EB5171CD104FF4CB
:100CC0007A7045430120094908804FF0E02000690F
:100CD00040F002004FF0E0210861084645610069DC
:100CE00040F00100086170BD8400002086000020F3
:100CF000704730B5CC1000F1200353F824304C0776
:100D0000E50E0F24AC40A343CD1000F1200444F8BD
:100D10002530CC1000F1200353F824304C07E40EAA
:100D200002FA04F42343CD1000F1200444F82530E6
:100D300030BDF0B50A4600210023002400BF3DE08D
:100D4000012505FA01F3156805EA03049C4234D134
:100D500005684F000326BE40B543056015794E0077
:100D6000B5400668354305601579012D02D0157927
:100D7000022D16D185684F000326BE40B54385601D
:100D800055794E00B5408668354385604568012633
:100D90008E40B5434560456896798E40B6B235437E
:100DA0004560C5684F000326BE40B543C560D57990
:100DB0004E00B540C6683543C560491C1029BFD3F5
:100DC000F0BDF0B5002300244D07ED0E02FA05F347
:100DD000CE1000F1200555F826504E07F70E0F26CD
:100DE000BE40B543CF1000F1200646F82750CE1084
:100DF00000F1200555F8265045EA0304CE1000F115
:100E0000200545F82640F0BD0246002013690B403E
:100E10000BB1012000E000207047418370472DE9AD
:100E2000F0470C46DDE90867002100258C4600BF2D
:100E300060E04FF0010808FA01F504EA050CAC4542
:100E400057D1D0F800804FEA410A4FF0030909FA60
:100E50000AF928EA0908C0F80080D0F800804FEAB3
:100E6000410902FA09F948EA0908C0F80080012A94
:100E700001D0022A27D1D0F808804FEA410A4FF06A
:100E8000030909FA0AF928EA0908C0F80880D0F825
:100E900008804FEA410906FA09F948EA0908C0F84A
:100EA0000880D0F804904FF0010808FA01F829EA08
:100EB0000809C0F80490D0F8048003FA01F948EA60
:100EC0000908C0F80480D0F80C804FEA410A4FF0BE
:100ED000030909FA0AF928EA0908C0F80C80D0F8D1
:100EE0000C804FEA410907FA09F948EA0908C0F8F5
:100EF0000C80491C10299CD3BDE8F0870183704702
:100F00001FB56B460E223B21682006F005F800282D
:100F100071D19DF801009DF8001040EA01205E4962
:100F20000988401A00B25D4908809DF803009DF8C9
:100F3000021040EA012058494988401A00B2574936
:100F400048809DF805009DF8041040EA01205249B0
:100F50008988401A00B2514988809DF809009DF89F
:100F6000081040EA01204E490988401A00B24D4954
:100F700008809DF80B009DF80A1040EA01204849BE
:100F80004988401A00B2474948809DF80D009DF8F5
:100F90000C1040EA012042498988401A00B24149B8
:100FA00088800846B0F9000000EE100AB8EEC00ACA
:100FB000DFED3D0A20EE200A3C4880ED000A08469D
:100FC000B0F9020000EE100AB8EEC00ADFED360AF2
:100FD00020EE200A354880ED010A0846B0F90400E9
:100FE00000EE100AB8EEC00ADFED2F0A20EE200A4C
:100FF0002E4880ED020A6B46062203211E2005F0D2
:101000008BFFE8BB9DF801009DF8001040EA01202D
:1010100000B2274908809DF805009DF8041040EAB9
:10102000012000B2224948809DF803009DF802107B
:1010300040EA012000B21E4988800846B0F900004D
:10104000B0F5004F04DB08460088401C00B2088061
:101050001748B0F90200B0F5004F05DB144840888E
:10106000401C00B2124948801148B0F90400B0F5A4
:10107000004F07DB0E488088401C00B20C4900E09E
:1010800000E08880582000F0D3FD482000F076FC76
:1010900000F0FEFA1FBD00000A000020040000203E
:1010A000160000201000002089A18B3AA401002026
:1010B0001C000020DFED0C0AB0EE600A4FF080400B
:1010C000406A0A49086000204FF0804148620748A2
:1010D000D0ED000AF8EE600A9FED051AC0EE811A05
:1010E000B0EE610A7047000000000000EC00002034
:1010F0000024F449DFED0B0AB0EE600A0A480068EC
:101100000A4908600020084908600848D0ED000A34
:10111000F8EE600A9FED061AC0EE811AB0EE610A81
:10112000704700000000000024080040200100205B
:101130000024744910B5182200213C2000F0C8F9A1
:10114000202201213C2000F0C3F9002202213C2092
:1011500000F0BEF910BD00BFFEE70000104890EDA2
:10116000001A30EE411A0F48D0ED001A21EE211A74
:10117000DFED0D1A21EE211AF0EE410A0B4890ED39
:10118000001AF1EE0C1A21EE211AF0EE081A00EE08
:10119000A11AF2EE041A81EE212A80ED002A70478E
:1011A00028000020300000200000C8423400002049
:1011B00070B505460C4600F0C1F8284600F022F94B
:1011C000204600F01FF900F0E9F870BD70B5044644
:1011D0000D4600F0B3F8204600F014F9284600F060
:1011E00011F900F0ABF8611CC8B200F00BF900F087
:1011F00049F8064600F0D2F8304670BD2DE9F041BE
:1012000004460D4600F09AF8204600F0FBF8284608
:1012100000F0F8F800F092F8611CC8B200F0F2F8A3
:1012200000F05EF8064600F02DF8074600F0B6F82C
:1012300047EA06284046BDE8F0812DE9F04704461C
:101240000D4600F07BF8204600F0DCF8284600F060
:10125000D9F800F073F8611CC8B200F0D3F800F0C0
:101260003FF8064600F03CF8074600F00BF88046D1
:1012700000F094F8300440EA072040EA08094846A4
:10128000BDE8F08770B580211448FFF737FE402194
:101290001248FFF7C2FD0024002518E040210F4846
:1012A000FFF72CFE012005F0FFFD6006040E8021F3
:1012B0000A48FFF7A9FD08B144F00104402107489E
:1012C000FFF7ABFD012005F0EFFD681CC5B2082D4E
:1012D000E4DB00F0E3F8204670BD000000040240AB
:1012E00070B580211448FFF709FE40211248FFF72E
:1012F00094FD0024002518E040210F48FFF7FEFD73
:10130000012005F0D1FD6006040E80210A48FFF798
:101310007BFD08B144F0010440210748FFF77DFD43
:10132000012005F0C1FD681CC5B2082DE4DB00F00A
:101330004FF8204670BD00000004024010B5802127
:101340001548FFF7DBFD012005F0AEFD40211248F6
:10135000FFF7D4FD012005F0A7FD80210E48FFF71F
:1013600053FD08B9012010BD80210B48FFF755FD42
:10137000012005F099FD40210748FFF74EFD0120AF
:1013800005F092FD80210448FFF73EFD08B10220E0
:10139000E9E70020E7E700000004024010B58021E3
:1013A0000A48FFF73AFD012005F07EFD402107487D
:1013B000FFF7A4FD012005F077FD80210348FFF72A
:1013C0009DFD012005F070FD10BD000000040240ED
:1013D00010B580210A48FFF720FD012005F064FDCB
:1013E00040210748FFF78AFD012005F05DFD4021FF
:1013F0000348FFF712FD012005F056FD10BD000067
:101400000004024070B5044640212348FFF705FD63
:10141000002520E004F0800020B180211E48FFF765
:101420006DFD03E080211C48FFF7F7FC6006040E09
:10143000012005F039FD40211748FFF75FFD01202D
:1014400005F032FD40211448FFF7E7FC012005F0CC
:101450002BFD681CC5B2082DDCDB80210E48FFF790
:101460004DFD012005F020FD40210B48FFF746FD12
:10147000012005F019FD80210748FFF7C5FC28B1C0
:1014800040210548FFF7C9FC002070BD40210248FB
:10149000FFF7C3FC0120F8E70004024010B58021EB
:1014A0000A48FFF72BFD012005F0FEFC402107480C
:1014B000FFF724FD012005F0F7FC40210348FFF76A
:1014C000ACFC012005F0F0FC10BD0000000402405F
:1014D00070B506460C461546FFF730FF3046FFF75D
:1014E00091FF2046FFF78EFF2846FFF78BFFFFF79F
:1014F00055FF70BD1CB50121022002F0FBFAC0208F
:10150000009001208DF804008DF8060003208DF86E
:10151000050001208DF8070069460248FFF709FC25
:101520001CBD0000000402403048007830B10128A2
:1015300029D0022812D0032851D13FE0DFED2C0A38
:10154000B4EEE00AF1EE10FA07DD02202749087038
:10155000DFED280A2848C0ED000A44E0DFED270A45
:10156000B4EEE00AF1EE10FA02DD03201F49087024
:10157000DFED1F0AB4EEE00AF1EE10FA02D201200C
:101580001A4908702FE0DFED1A0AB4EEE00AF1EE16
:1015900010FA08DD0220154908701948D0ED000A3C
:1015A0001548C0ED000ADFED170AB4EEE00AF1EECF
:1015B00010FA02D200200D49087014E0DFED0F0A86
:1015C000B4EEE00AF1EE10FA08D2022007490870E2
:1015D0000B48D0ED000A0848C0ED000A03E00020E7
:1015E0000249087000BF00BF70470000580000208B
:1015F00000C0A8440000C842540000200040CE446F
:101600003400002000408344F0EE401AF4EEE01A6B
:10161000F1EE10FA02D2B0EE600A7047F4EEC11A91
:10162000F1EE10FA02DDB0EE410AF6E7B0EE610A23
:10163000F3E710B57521D020FFF7C8FD682801D069
:10164000002010BD00226B21D020FFF741FF0022B7
:101650001921D020FFF73CFF06221A21D020FFF7E6
:1016600037FF18221B21D020FFF732FF08221C2150
:10167000D020FFF72DFF02223721D020FFF728FFCF
:1016800000226A21D020FFF723FF0120D9E70000C4
:1016900010B52DED088B9548007800285AD0944855
:1016A000007880B90020934908804880888092495A
:1016B0000860924908609249086001208C490870CE
:1016C000BDEC088B10BD8A480078401C8849087022
:1016D0008C48B0F9000088490968084486490860C8
:1016E0008848B0F9020085490968084483490860C0
:1016F0008448B0F9040082490968084480490860B8
:101700007B480078652825D179480078401E7849C3
:10171000087079480068097890FBF1F000B27549CB
:101720000880764800687249097890FBF1F000B2B1
:1017300070494880724800686D49097890FBF1F063
:10174000A0F5005000B26B498880002068490870FD
:10175000664908706C480078002856D06B480078BD
:1017600070B900206A49088048808880694908600B
:1017700069490860694908600120644908709FE769
:1017800062480078401C614908706548B0F9000063
:101790006049096808445F4908606148B0F902007F
:1017A0005D49096808445C4908605D48B0F9040077
:1017B0005A4909680844594908605448007865281E
:1017C00023D152480078401E5049087051480068A3
:1017D000097890FBF1F000B24D4908804E4800684E
:1017E0004A49097890FBF1F000B2494948804B48DA
:1017F00000684649097890FBF1F000B244498880BE
:101800000020424908704049087046480078002886
:101810006AD04548007868B99FED440A444880ED95
:10182000000A9FED420A434880ED000A01203E492C
:10183000087045E73C480078401C3B4908703D482B
:1018400090ED000A3C48D0ED000A30EE200A3948FD
:1018500080ED000A08460078332845D10846007814
:10186000401E08703348D0ED000A0846007800EEAC
:10187000100AB8EE400A80EE801A2D4880ED001A5A
:101880000020087027490870294890ED000ADFED14
:101890002B0A80EE201A11EE104A204606F0B0F90D
:1018A00041EC1B0B9FED261BB0EE4B0AF0EE6B0AD2
:1018B00003F0E6FFB0EE40AAF0EE60AA9FED220B27
:1018C00053EC102B51EC1A0B05F0A4FE41EC190B54
:1018D0009FED1F0B53EC102B05F0AEFC41EC180BE9
:1018E00005F0BCFB1C49086000BFE9E601000020D0
:1018F000D00000200A000020C4000020C800002002
:10190000CC0000200400002000000020E0000020A7
:1019100016000020D4000020D8000020DC000020A9
:101920001000002002000020E8000020000000005D
:1019300028000020E40000202400002080E6C547A5
:10194000969E597A66E9E9BF0000000080A1E5C0D3
:1019500067666666A84020413000002070B50446E6
:101960002146EE20FFF724FC092005F075FA00213E
:10197000EE20FFF762FC0546284670BD70B52DEDE0
:101980000A8B04462046FFF7E9FF934908600920C7
:1019900005F062FA9148008900EE100AB8EE400A9C
:1019A0008F48D0ED000A20EE200A9FED8E1AC0EE7F
:1019B000010A8A488088000400EE100AB8EE400A46
:1019C00030EE800A10EE105A284606F019F9864AC1
:1019D00003C28248C08800EE100AB8EE400A804870
:1019E000D0ED000A20EE200A9FED801AC0EE010A19
:1019F0007A484088C00300EE100AB8EE400A30EE84
:101A0000800A10EE105A284606F0FAF8784A03C207
:101A1000784890ED000ADFED780AB4EEE00AF1EEC6
:101A200010FA6AD26E4890ED000A20EE000ADFED4F
:101A3000730A80EE201A724880ED001A6D4890ED0E
:101A4000000ADFED6D0A30EE600A20EE000A6D48F4
:101A500080ED000A90ED000AF0EE040A20EE200A64
:101A6000694880ED000A674890ED000AF7EE040A25
:101A700020EE200A654880ED000A5E4890ED000ADD
:101A8000DFED630AB4EEE00AF1EE10FA44D290ED15
:101A9000000ADFED600A30EE200A20EE000A594805
:101AA00080ED000A584890ED000A5648D0ED000A33
:101AB000B1EE0C1A01EE200A534880ED000A51489D
:101AC00090ED000AF1EE060A20EE200A10EE101A40
:101AD000084606F095F841EC190B454890ED000BCF
:101AE00053EC102B51EC190B05F0EAFA41EC180BF2
:101AF00005F0B4FA454908600EE09FED470A4048FA
:101B000080ED000A9FED440A3F4880ED000A9FEDFA
:101B1000420A3E4880ED000A364890ED000A3848F7
:101B2000D0ED000A30EE600A324880ED000A3648F7
:101B3000006806F065F841EC180B2B4890ED000B9F
:101B400053EC102B51EC180B05F098FE264A03C2FB
:101B50002E48006806F054F841EC180B244890ED2C
:101B6000000B53EC102B51EC180B05F087FE204AAC
:101B700003C21948006805F0FDFC41EC1C0B1C4831
:101B800090ED000B53EC102B51EC1C0B05F042FDBB
:101B900041EC1B0B9FED210B53EC102B05F04CFB84
:101BA00041EC1A0B104890ED000B53EC102B51EC4C
:101BB0001A0B05F03BFF41EC190B9FED1A0B53EC90
:101BC000102B05F039FB41EC180B05F047FA1749CB
:101BD0000860BDEC0A8B70BD28010020A82A0020F7
:101BE0003001002000000043380100200000804345
:101BF000400100202C0000200000FA440000004FAB
:101C000034010020480100204C0100205001002038
:101C10000080BBC40080BB44000000000000000046
:101C200000004041000000000000E04024000020CF
:101C300010B504462046FFF791FE144908600920BC
:101C400005F00AF91248408910490968A1EB002003
:101C500000EE100AB8EE400A0E4880ED000A0C486B
:101C6000808900EE100AB8EE400A0A48D0ED000A5A
:101C700020EE200A9FED081AC0EE010A9FED070A28
:101C800030EE800A064880ED000A10BD2C010020CD
:101C9000A82A0020300100200000004B0000FA4478
:101CA0002C00002010B500F01DF8642005F0D4F8D9
:101CB00000F004F8642005F0CFF810BD10B5002442
:101CC0000BE0A02000EB4400C1B2EE20FFF796FA33
:101CD000034921F81400601CC4B2062CF1DD10BDCC
:101CE000A82A002010B51E21EE20FFF761FA10BDD2
:101CF00000BFFEE700B5FFF7FDF9A64880ED000A3A
:101D0000A54890ED011ADFEDA51A21EE211AF0EE9B
:101D1000410AA34890ED011AA248D0ED001A31EE15
:101D2000C11AB0EE410AA049A04800F079FFA048CE
:101D300080ED000A984890ED001AB1EE411ADFEDEF
:101D4000971A21EE211AF0EE410A954890ED021AF9
:101D50009848D0ED001A31EEC11AB0EE410A96490A
:101D6000964800F05DFF964880ED000A954890ED9A
:101D7000000AFFF7D9FB94480078022813D1934852
:101D8000D0ED000A924890ED001A70EEC10AB0EE54
:101D9000600A00218F48DFED900A00F041FF8F4874
:101DA00080ED000A34E088480078032816D1854881
:101DB000D0ED000A9FED8A1A70EEC10A9FED891AD4
:101DC00060EE810AB0EE600A00218248DFED820AEF
:101DD00000F026FF814880ED000A19E07A4800787B
:101DE000012815D17748D0ED000A9FED7F1A70EEDB
:101DF000C10A9FED7C1A60EE810AB0EE600A0021F4
:101E00007448DFED750A00F00BFF744880ED000A9E
:101E10007248D0ED000A9FED751A70EE810A68488D
:101E200090ED001A70EEC10A614890ED001A70EE54
:101E3000810A6F4890ED001A70EEC10AB0EE600A98
:101E40009FED6C1ADFED6C0AFFF7DEFB6B4880ED4F
:101E5000000A6248D0ED000A9FED641A70EE810A14
:101E6000574890ED001A70EEC10A514890ED001AE3
:101E700070EEC10A5E4890ED001A70EE810AB0EE75
:101E8000600A9FED5C1ADFED5C0AFFF7BDFB5C4862
:101E900080ED000A5148D0ED000A9FED541A70EE13
:101EA000810A474890ED001A70EE810A404890ED93
:101EB000001A70EE810A4E4890ED001A70EE810A09
:101EC000B0EE600A9FED4B1ADFED4B0AFFF79CFB6B
:101ED0004C4880ED000A4148D0ED000A9FED431ABE
:101EE00070EE810A364890ED001A70EE810A304893
:101EF00090ED001A70EEC10A3D4890ED001A70EEA8
:101F0000C10AB0EE600A9FED3B1ADFED3B0AFFF716
:101F10007BFB3D4880ED000A2B48007820B3204829
:101F200090ED020ADFED390AB4EEE00AF1EE10FAA4
:101F30001ADA90ED020ADFED360AB4EEE00AF1EEAD
:101F400010FA11D990ED010ADFED300AB4EEE00A83
:101F5000F1EE10FA08DA90ED010ADFED2D0AB4EE89
:101F6000E00AF1EE10FA13D89FED230A234880ED22
:101F7000000A9FED210A224880ED000A9FED1E0A0B
:101F8000204880ED000A9FED1C0A1F4880ED000AE2
:101F900000BD000040000020A4010020E12E6542A9
:101FA000B001002044000020BC010020D801002026
:101FB0005C00002048000020F401002010020020F6
:101FC0006000002050000020580000205400002035
:101FD00034000020480200200000000068000020BB
:101FE0000040CE44CDCCCC3D00C0A8440080BB44D2
:101FF000640000200000FA4400007A4474000020CD
:10200000780000207C000020800000200000824238
:10201000000082C200B53D4B1B8800EE903AF8EEFE
:10202000600AB0EE600A9FED3A1ADFED3A0AFFF758
:10203000EBFABDEEC00A10EE103A18B2334B5B88D3
:1020400000EE903AF8EE600AB0EE600A9FED301AAA
:10205000DFED300AFFF7D8FABDEEC00A10EE103AF5
:1020600019B22A4B9B8800EE903AF8EE600AB0EE67
:10207000600A9FED271ADFED270AFFF7C5FABDEECC
:10208000C00A10EE103A1BB202EE103A1F4BDB886A
:1020900000EE903AF8EE600AB0EE600A9FED1C1A6E
:1020A000DFED1C0AFFF7B0FABDEEC00A10EE103AE1
:1020B0001AB2A2F2DC5300EE103AB8EEC00ADFED1D
:1020C000160A20EE200A154B83ED000AA1F2DC531C
:1020D00000EE103AB8EEC00ADFED0F0A20EE200A3B
:1020E0000F4B83ED000AA0F2DC5300EE103AB8EE7D
:1020F000C00ADFED0C0A20EE200A0B4B83ED000A2C
:10210000B8EEC20A094B83ED000A00BD6C00002046
:102110000000FA4400007A440AD7233D440000201E
:10212000480000200AD7A33C4C00002050000020AB
:102130007047000070B5002100230F22C4781CB343
:10214000174C246804F4E064C4F5E064C4F3072188
:10215000C1F10404E3B20A4144789C40E1B28478BE
:10216000144021430C07210E0E4C0578615504786C
:1021700004F01F050124AC4005786D11AD0005F198
:10218000E025C5F8004109E0047804F01F050124AA
:10219000AC40054D0678761145F8264070BD00002C
:1021A0000CED00E000E400E080E100E010B500F09C
:1021B0000DF800F06DFB00F08DFB00F0ADFB00F0C2
:1021C00065FB00F0E3FB00F019F810BD0848802122
:1021D00002E0491E002204C00029FAD1054A064B3C
:1021E0001A601A46126822F007021A60704700004F
:1021F0004C3300204C350020900100207047000037
:1022000010B500241A480078012830D1FEF752F8A2
:1022100004461848007820B116480078401E154939
:10222000087014480078F8B913480078E0B900F055
:1022300019FC12481249097850F821001149086028
:102240000F4800781049097888420DD00D48006881
:10225000806A401C0B49096888620C480068401C71
:102260000A490860FEF743F82046FEF727F810BD3C
:10227000710100206401002065010020B82C0020BD
:10228000670100208001002066010020600100201D
:1022900010B500240B480078012811D1FEF70AF888
:1022A00004460948007840B908480078FF2804D25D
:1022B00006480078401C054908702046FDF7FEFFDF
:1022C00010BD0000710100206401002065010020A4
:1022D00010B5002413480078012821D1FDF7EAFF4A
:1022E000044611480078C0B91048007888B10F48FA
:1022F0000078401E0D4908700846007828B920462D
:10230000FDF7DCFF00F074FB0AE02046FDF7D6FF86
:1023100006E02046FDF7D2FF02E02046FDF7CEFFA3
:1023200010BD000071010020640100206501002043
:1023300010B50B48007890B900F094FB094800787C
:102340000949087009480749097850F821000849E7
:1023500008600846006807490860FDF7B2FF10BD35
:10236000710100206701002066010020B82C0020C8
:102370008001002078010020704700002DE9FE4F09
:1023800006460F4690461C464FF00009FDF792FFA7
:1023900081461F48007828B14846FDF78FFF3C2052
:1023A000BDE8FE8F1B4850F8240060BB012019498E
:1023B00041F824004846FDF781FF00234246394694
:1023C000304600F05BF98246002000900190034601
:1023D000024651460290204600F05AFB054635B9A8
:1023E0000D48007801280CD100F002FB09E0FDF750
:1023F00061FF81460020074941F824004846FDF767
:102400005DFF2846CCE74846FDF758FF2820C7E780
:1024100064010020B82C0020710100202DE9F04F4C
:1024200085B00746884691461C46DDE911B6DDF8C1
:1024300038A000200390FDF73DFF03901F4800786F
:1024400030B10398FDF73AFF3C2005B0BDE8F08FAE
:102450001B4850F8240060BB0120194941F82400B2
:102460000398FDF72BFF33464A464146384600F0B5
:1024700005F9049010985346CDE901B60090204626
:102480000F9A049900F004FB054635B90D48007811
:1024900001280CD100F0ACFA09E0FDF70BFF039026
:1024A0000020074941F824000398FDF707FF28465C
:1024B000CBE70398FDF702FF2820C6E76401002060
:1024C000B82C0020710100207047000070B505464F
:1024D00000264148007808B1402070BD3F2D01D151
:1024E0003E20FAE7FDF7E6FE0646FF2D03D13B4806
:1024F000006890F822503A4850F8254024B93046F8
:10250000FDF7DCFE4320E8E7012C04D13046FDF75F
:10251000D5FE3D20E1E714F8240F3249085C6178CC
:10252000884321782F4A505414F824091146085C36
:1025300030B994F826102C48007888432A4908704E
:102540000020E06184F8200084F82100274800780A
:10255000FF2804D225480078401C244908703046E2
:10256000FDF7ACFE00F091F9FDF7A4FE06461F480A
:10257000007820B11D480078401E1C490870204694
:1025800000F040F81A480078401E194908700020F1
:10259000134941F82500A06930B9002061698861BC
:1025A00014496069086005E0D4E905014861D4E98F
:1025B000051088611048006860610F4804600FA032
:1025C000E0633046FDF77AFE0D480078012801D11E
:1025D00000F00EFA002080E764010020780100205E
:1025E000B82C00206901002068010020650100204E
:1025F00072010020840100207C0100203F000000C7
:1026000071010020704770472DE9F04106460F46E2
:1026100014464FF000081548007818B112202070B9
:10262000BDE8F081FDF746FE8046FF2E03D110483D
:10263000006890F822600F4850F826502DB94046A7
:10264000FDF73CFE43202070EAE7012D05D140460E
:10265000FDF734FE43202070E2E7EF634046FDF7CC
:102660002DFE0020207000BFDAE70000640100208A
:1026700078010020B82C00207047000070B5044697
:10268000101D20F007004FF08076051F28462E60B1
:10269000051F28462C60214E051F28462E604FF04E
:1026A0001236051F28462E604FF00336051F2846B8
:1026B0002E604FF00236051F28462E607610051F4B
:1026C00028462E60051F284629604FF01136051F49
:1026D00028462E604FF01036051F28462E604FF01A
:1026E0000936051F28462E604FF00836051F28467C
:1026F0002E604FF00736051F28462E604FF0063635
:10270000051F28462E604FF00536051F28462E600F
:102710004FF00436051F28462E6070BDED2B0008D3
:102720007047000070B5054600261748007800B1D4
:1027300070BD1648007800B1FAE71DB3FDF7BAFD89
:1027400006461348006890F824401248005D10497E
:10275000096891F8251088430E4908550846005D20
:1027600040B90B48006890F826100B480078884361
:102770000949087006480068C5613046FDF79EFDAE
:1027800000F036F900BFD3E76401002065010020A6
:1027900078010020690100206801002070B5002642
:1027A00000F072F8FDF786FD064631480068401CCF
:1027B0002F4908603046FDF781FD2E48007801283A
:1027C00053D12D48007820B1012804D0022809D126
:1027D00003E001250BE0002509E001250120264941
:1027E000087004E0012500202349087000BF00BFE5
:1027F00005B970BD2148046833E0FDF75BFD06466E
:10280000E06950B3E069401EE061E06928BB94F8DC
:10281000200000F0370040B114F8200F00F0C8008D
:10282000207001206070203C02E0002084F821002C
:1028300094F8200000F0080078B92434A0781049FA
:10284000097808430E49087020780E49085C6178C1
:10285000084314F824190B4A505464693046FDF7B4
:102860002DFD94F822003F28C7D100BFC1E700002A
:102870008C010020710100208801002084010020CB
:102880006801002069010020704770477047000010
:10289000002008490860084908700849087008497C
:1028A0000870084908700849086008490860084924
:1028B000087070478C010020640100206501002031
:1028C00072010020710100206001002074010020CD
:1028D0008901002000210A4A1170002004E0002133
:1028E000084A1154411CC8B20828F8D30021064AEE
:1028F0001170064A1170064A1160064A116070474D
:1029000068010020690100206601002067010020A5
:10291000800100207801002070B540F294511648E3
:1029200000F05CF84FF48071144800F057F8002371
:102930000FE0581CC5B203EB03100F4901EB8004F4
:1029400005EB051001EB800666610DA0E063581CE5
:10295000C3B2142BEDD303EB0310074901EB800442
:102960000020606106A0E06300200649086002487C
:102970000549086070BD0000B82D0020B82C00206B
:102980003F000000840100207C01002000B587B0DA
:102990000320002180220A4BCDE90132CDE903104A
:1029A0004FF6FF703F23074A00900748FFF736FDB8
:1029B00006AA06A13F20FFF727FE07B000BD0000D2
:1029C000B82A0020B42C0020C52B000875432F4FD7
:1029D000532D49492049646C6500000004E0002241
:1029E00000F8012B4A1E91B20029F8D1704700006F
:1029F00010B50024FDF75EFC044613480078F8B9D2
:102A000012480078E0B900F02DF811481149097812
:102A100050F82100104908600E4800780F490978E5
:102A200088420DD00C480068806A401C0A49096839
:102A300088620B480068401C09490860FDF752FC99
:102A40002046FDF73BFC10BD64010020650100201D
:102A5000B82C0020670100208001002066010020C2
:102A6000600100200649074A1278885C0649095C23
:102A7000034A515C01EBC001044A11707047000029
:102A8000E67D000868010020690100206701002040
:102A90002DE9F84F05460F4690469946DDE90AAB09
:102AA00000200090FDF706FC00903F480468002CD1
:102AB00075D008343C49E06808600098FDF7FEFBDB
:102AC00044F8087CA576002020766076606144F8A2
:102AD00004BCC4F804A0C4F800800C982081A4F8B9
:102AE0000A900020E077E810207705F00700E076F4
:102AF000217F01208840A077E17E01208840607717
:102B000000202062A0626062E062206327A0606310
:102B1000083C002606E0002104F1400040F82610A1
:102B2000701CC6B2002EF6D02046FFF725FCFDF73C
:102B3000C1FB00901E4840F825400098FDF7BEFB01
:102B40002046FFF7C1FCFDF7B5FB0090194800686F
:102B500060610020A0611748006810B11548006846
:102B60008461144804602434A07813490978084328
:102B70001149087020781149085C6178084314F8FD
:102B800024190E4A50540E480078401C0C49087015
:102B90000098FDF793FB0020BDE8F88FFFE7009851
:102BA000FDF78CFB4220F7E77C0100203F0000008E
:102BB000B82C002084010020680100206901002059
:102BC00072010020002400BF00BFFDF773FB044624
:102BD00005480068401C044908602046FDF76EFB6C
:102BE000FFF711FDF1E700007401002010B5044863
:102BF0000068FFF741FDFF20FFF768FC10BD0000F3
:102C00007801002001200349087003490870034936
:102C10000870704701000020000000200200002022
:102C200000B5F0EE402AB0EE603A00287DD00029D1
:102C30007BD091ED040A734AD2ED000AC0EE803ACF
:102C400091ED050AD2ED000A80EE202AC0ED002A9F
:102C500090ED030AD0ED000A20EE200A80ED060A6E
:102C600090ED000A80ED010A90ED060A30EE430A6D
:102C700081ED000A91ED020ADFED630AB4EEE00A8D
:102C8000F1EE10FA0FDD91ED000AB5EEC00AF1EE9B
:102C900010FA29D291ED020AD1ED000A30EE200A95
:102CA00081ED020A20E091ED020ADFED580AB4EE50
:102CB000E00AF1EE10FA0FD291ED000AB5EEC00A6B
:102CC000F1EE10FA10DD91ED020AD1ED000A30EEBE
:102CD000200A81ED020A07E091ED020AD1ED000A17
:102CE00030EE200A81ED020A91ED000AD1ED020AD0
:102CF00000EEA30AD1ED000A91ED011A70EEC10AAF
:102D000000EE820AD1ED030A20EE200A81ED060AC8
:102D1000D1ED060AB0EE600A9FED3D1ADFED3D0AE7
:102D2000FEF772FC81ED060A00E006E091ED000A74
:102D300081ED010A91ED060A00BD60B359BB90ED2B
:102D4000050A304AD2ED000A80EE204AC0ED002A82
:102D500090ED000AD0ED010A70EE600A90ED000AD5
:102D600000EE840AD0ED030A20EE200A80ED060A68
:102D7000D0ED060AB0EE600A9FED251ADFED250AB8
:102D8000FEF742FC80ED060A90ED000A80ED010A94
:102D900090ED060AD0E788BB81B391ED050A194A88
:102DA000D2ED000A80EE202A1B4A92ED000A30EE96
:102DB000430A81ED000A91ED000AD1ED010A70EE9F
:102DC000600A91ED000A00EE820AD1ED030A20EEBE
:102DD000200A81ED060AD1ED060AB0EE600A9FEDE9
:102DE0000C1ADFED0C0AFEF70FFC81ED060A91EDDF
:102DF000000A81ED010A91ED060A9DE7FFE79FEDCC
:102E0000070A99E74000002000007A4500007AC5D3
:102E10000000FA430000FAC34C000020000000004C
:102E2000284890ED000A284880ED030A274890EDD5
:102E3000000A274880ED030A264890ED000A24483E
:102E400080ED040A244890ED000A214880ED050A2F
:102E5000224890ED000A224880ED030A214890EDB7
:102E6000000A214880ED030A204890ED000A1E4820
:102E700080ED040A1E4890ED000A1B4880ED050A0B
:102E80001C4890ED000A1C4880ED030A1B4890ED99
:102E9000000A194880ED050A194890ED000A194802
:102EA00080ED030A184890ED000A164880ED050AE7
:102EB0000020164908709FED160A164880ED000A9A
:102EC00070470000F0000020D8010020F40000202E
:102ED000BC010020F8000020FC00002000010020C0
:102EE0001002002004010020F4010020080100204D
:102EF0000C010020100100202C02002014010020F1
:102F000018010020480200201C0100205800002069
:102F100000000000540000200EB50121042000F044
:102F2000F9FD0B4801F032FC4FF6FF7001904F2085
:102F3000ADF800000020ADF80800ADF802006946C9
:102F4000034801F057FD0121014801F013FC0EBDBB
:102F50000008004000B589B00121084600F0CAFD14
:102F60000121082000F0D6FD0F20079002208DF8E7
:102F700020008DF8210000208DF8220001208DF81E
:102F8000230007A94E48FDF7D4FE022200214C4839
:102F9000FDF717FF022201214948FDF712FF022227
:102FA00011464748FDF70DFF022203214448FDF773
:102FB00008FF444801F0EAFB4FF6FF7001905320F0
:102FC000ADF800000020ADF80800ADF802008DF863
:102FD0000A0069463B4801F00DFD0020ADF80C00E9
:102FE000ADF80E000120ADF810000020ADF8120081
:102FF0000B20ADF8140003A9324801F08FFC042027
:10300000ADF80C000020ADF80E000120ADF8100066
:103010000020ADF812000B20ADF8140003A92948D8
:1030200001F07CFC0820ADF80C000020ADF80E008B
:103030000120ADF810000020ADF812000B20ADF813
:10304000140003A91F4801F069FC0C20ADF80C0026
:103050000020ADF80E000120ADF810000020ADF802
:1030600012000B20ADF8140003A9164801F056FC1D
:1030700032208DF8180000208DF819008DF81A0004
:1030800001208DF81B0006A8FFF754F80122022149
:103090000C4801F07AFC012204210A4801F075FC79
:1030A00001220821074801F070FC01221021054887
:1030B00001F06BFC0121034801F05CFB09B000BD8D
:1030C00000000240000C00407CB540F2E73540F2C1
:1030D0000B647A48006840F002007849086078483C
:1030E000008820F06000764908800846008820F0BB
:1030F0001000088072480830008820F007007049EE
:10310000083108806E482C300560001F04800020C4
:103110006B4934310860091D0860091D0860091DEC
:10312000086066481038006840F0010063491039B3
:1031300008600020022103460A46CDE90010402124
:103140006048FDF76CFE0020022103460A46CDE9E7
:10315000001080215B48FDF762FE022206215948DB
:10316000FDF7C7FD022207215648FDF7C2FD54486E
:103170001830008820F003005149183108800846B3
:10318000008840F0600008800846008840F0080091
:1031900008804B482030008840F001004849203129
:1031A00008800846008820F0020008804448183053
:1031B000008820F440704249183108800846008891
:1031C00040F4C04008800846008840F40060088051
:1031D0003B482030008840F01000394920310880F9
:1031E0000846008820F02000088034481038006825
:1031F00040F00200314910390860002002210346E6
:103200000A46CDE9001001212F48FDF708FE0020F5
:10321000022103460A46CDE900102B48FDF7FFFDC9
:10322000022200212848FDF764FD022201212648E0
:10323000FDF75FFD22481C30008820F00300204984
:103240001C3108800846008840F06000088008466D
:10325000008840F008000880081D008840F4807055
:10326000091D08800846008820F400700880081FA7
:10327000008820F44070091F08800846008840F448
:10328000C04008800846008840F400600880081D9F
:10329000008840F48050091D08800846008820F40A
:1032A000005008800648008840F0800004490880EB
:1032B0000846008840F0010008807CBD403802408C
:1032C00000040040000002400004024000B5A3B02A
:1032D00018AB062203211E2003F01EFE78BB9DF8CA
:1032E00061009DF8601040EA012000B221909DF835
:1032F00065009DF8641040EA012000B220909DF81E
:1033000063009DF8621040EA012000B21F902198EE
:10331000B0F5004F03DB2198401C00B221902098AB
:10332000B0F5004F03DB2098401C00B220901F989E
:10333000B0F5004F03DB1F98401C00B21F909FEDBB
:10334000FE0A8DED1C0A9FEDFC0A8DED1D0A1D98ED
:1033500004F056FCCDE908019DED080B03F0ACF834
:103360008DED0C0B1F9804F0EEF8CDE90A019DEDF0
:103370000C0B53EC102B9DED0A0B51EC100B04F0D1
:1033800049F9CDE910011D9804F03AFCCDE9080196
:103390009DED080B02F010FA8DED0C0B209804F057
:1033A000D2F8CDE90A019DED0C0B53EC102B9DEDED
:1033B0000A0B51EC100B04F02DF9CDE90E019DED37
:1033C000100B53EC102B9DED0E0B51EC100B04F079
:1033D0002DFBCDE914011D9804F012FCCDE9080184
:1033E0009DED080B02F0E8F98DED0C0B1C9804F034
:1033F00007FCCDE904019DED040B03F05DF88DEDB4
:10340000080B1F9804F09FF8CDE906019DED080B0D
:1034100053EC102B9DED060B51EC100B04F0FAF859
:10342000CDE90A019DED0C0B53EC102B9DED0A0B21
:1034300051EC100B04F0EEF8CDE910011D9804F0EA
:10344000DFFBCDE904019DED040B03F035F88DEDB4
:10345000080B1C9804F0D4FBCDE900019DED000B96
:1034600003F02AF88DED040B209804F06CF8CDE9F8
:1034700002019DED040B53EC102B9DED020B51EC62
:10348000100B04F0C7F8CDE906019DED080B53ECD5
:10349000102B9DED060B51EC100B04F0BBF8CDE9A1
:1034A0000C011C9804F0ACFBCDE904019DED040B6C
:1034B00002F082F98DED080B219804F044F8CDE973
:1034C00006019DED080B53EC102B9DED060B51EC06
:1034D000100B04F09FF8CDE90A019DED0C0B53ECA5
:1034E000102B9DED0A0B51EC100B03F0E9FDCDE91B
:1034F0000E019DED100B53EC102B9DED0E0B51ECBE
:10350000100B03F0DDFDCDE912019DED141B9DEDC7
:10351000120B02F059F88DED160B9DED160B51ECC8
:10352000100B03F09BFD1E909DED1E0AF6EE000AA7
:1035300020EE200A8DED0B0A0B9804F061FBCDE91B
:103540000C019DED0C0B02F0B7FF8DED100B9DED06
:103550001D0AF6EE000A20EE200A8DED070A0798F4
:1035600004F04EFBCDE908019DED080B02F0A4FF2D
:103570008DED0C0B9DED1C0AF6EE000A20EE200AE4
:103580008DED070A079804F03BFBCDE908019DED9E
:10359000080B02F091FF8DED0A0B9DED0C0B53EC27
:1035A000102B9DED0A0B51EC100B04F033F8CDE914
:1035B0000E019DED100B53EC102B9DED0E0B51ECFD
:1035C000100B04F027F8CDE914019DED1E0AF6EE6C
:1035D000000A20EE200A8DED0B0A0B9804F010FB78
:1035E000CDE90C019DED0C0B02F0E6F88DED100B12
:1035F0009DED1D0AF6EE000A20EE200A8DED070A69
:10360000079804F0FDFACDE908019DED080B02F0E2
:10361000D3F88DED0C0B9DED1C0AF6EE000A20EEA2
:10362000200A8DED070A079804F0EAFACDE90801AF
:103630009DED080B02F0C0F88DED0A0B9DED0C0B13
:1036400053EC102B9DED0A0B51EC100B03F0E2FF35
:10365000CDE90E019DED100B53EC102B9DED0E0BE3
:1036600051EC100B03F0D6FFCDE912019DED140BC8
:1036700053EC102B9DED120B51EC100B03F020FDC1
:10368000CDE916019DED160B51EC100B03F0E6FC95
:103690002A4908609DED1E0AF6EE000A20EE200A77
:1036A0008DED0B0A0B9804F0ABFACDE90C019DED02
:1036B0000C0B02F001FF8DED100B9DED1D0AF6EED7
:1036C000000A20EE200A8DED070A079804F098FA08
:1036D000CDE908019DED080B02F06EF88DED0C0BA5
:1036E0009DED1C0AF6EE000A20EE200A8DED070A79
:1036F000079804F085FACDE908019DED080B02F06A
:10370000DBFE8DED0A0B9DED0C0B53EC102B9DEDAC
:103710000A0B51EC100B03F07DFFCDE90E019DED7E
:10372000100B53EC102B9DED0E0B51EC100B03F016
:1037300071FFCDE9140103E000000000A8000020A3
:103740009DED1E0AF6EE000A20EE200A8DED0B0A12
:103750000B9804F055FACDE90C019DED0C0B02F02D
:103760002BF88DED100B9DED1D0AF6EE000A20EEF4
:10377000200A8DED070A079804F042FACDE9080106
:103780009DED080B02F098FE8DED0C0B9DED1C0AD3
:10379000F6EE000A20EE200A8DED070A079804F0E5
:1037A0002FFACDE908019DED080B02F005F88DED2B
:1037B0000A0B9DED0C0B53EC102B9DED0A0B51ECFD
:1037C000100B03F027FFCDE90E019DED100B53EC1C
:1037D000102B9DED0E0B51EC100B03F01BFFCDE9F0
:1037E00012019DED140B53EC102B9DED120B51ECBF
:1037F000100B04F01BF9CDE916019DED160B51ECF1
:10380000100B03F02BFCB84908609DED1E0AF6EE84
:10381000000A20EE200A8DED0B0A0B9804F0F0F957
:10382000CDE90C019DED0C0B02F046FE8DED100B69
:103830009DED1D0AF6EE000A20EE200A8DED070A26
:10384000079804F0DDF9CDE908019DED080B02F0C1
:1038500033FE8DED0C0B9DED1C0AF6EE000A20EEFA
:10386000200A8DED070A079804F0CAF9CDE908018E
:103870009DED080B01F0A0FF8DED0A0B9DED0C0BEB
:1038800053EC102B9DED0A0B51EC100B03F0C2FE14
:10389000CDE90E019DED100B53EC102B9DED0E0BA1
:1038A00051EC100B03F0B6FECDE914019DED1E0A9C
:1038B000F6EE000A20EE200A8DED0B0A0B9804F0BC
:1038C0009FF9CDE90C019DED0C0B01F075FF8DED1D
:1038D000100B9DED1D0AF6EE000A20EE200A8DED7C
:1038E000070A079804F08CF9CDE908019DED080B53
:1038F00001F062FF8DED0C0B9DED1C0AF6EE000A47
:1039000020EE200A8DED070A079804F079F9CDE939
:1039100008019DED080B02F0CFFD8DED0A0B9DED2A
:103920000C0B53EC102B9DED0A0B51EC100B03F01C
:1039300071FECDE90E019DED100B53EC102B9DEDAA
:103940000E0B51EC100B03F065FECDE912019DED5D
:10395000140B53EC102B9DED120B51EC100B03F0DC
:10396000AFFBCDE916019DED160B51EC100B03F0EA
:1039700075FB5E4908609DED1E0AF6EE000A20EE1A
:10398000200A8DED0B0A0B9804F03AF9CDE90C01F1
:103990009DED0C0B01F010FF8DED100B9DED1D0A40
:1039A000F6EE000A20EE200A8DED070A079804F0D3
:1039B00027F9CDE908019DED080B02F07DFD8DEDA5
:1039C0000C0B9DED1C0AF6EE000A20EE200A8DED90
:1039D000070A079804F014F9CDE908019DED080BDA
:1039E00002F06AFD8DED0A0B9DED0C0B53EC102BD4
:1039F0009DED0A0B51EC100B03F00CFECDE90E010E
:103A00009DED100B53EC102B9DED0E0B51EC100B9C
:103A100003F000FECDE914019DED1E0AF6EE000A4A
:103A200020EE200A8DED0B0A0B9804F0E9F8CDE9A1
:103A30000C019DED0C0B02F03FFD8DED100B9DED8B
:103A40001D0AF6EE000A20EE200A8DED070A0798FF
:103A500004F0D6F8CDE908019DED080B01F0ACFEAD
:103A60008DED0C0B9DED1C0AF6EE000A20EE200AEF
:103A70008DED070A079804F0C3F8CDE908019DED24
:103A8000080B01F099FE8DED0A0B9DED0C0B53EC2C
:103A9000102B9DED0A0B51EC100B03F0BBFDCDE993
:103AA0000E019DED100B53EC102B9DED0E0B51EC08
:103AB000100B03F0AFFDCDE912019DED140B53EC9B
:103AC000102B9DED120B51EC100B03F0AFFFCDE965
:103AD00016019DED160B51EC100B03F0BFFA0449D3
:103AE000086023B000BD0000AC000020B000002042
:103AF000B400002029B1064A12680243044B1A6040
:103B000004E0034A12688243014B1A6070470000C8
:103B10003038024029B1064A12680243044B1A6049
:103B200004E0034A12688243014B1A6070470000A8
:103B30004038024029B1064A12680243044B1A6019
:103B400004E0034A12688243014B1A607047000088
:103B50002038024029B1064A12680243044B1A6019
:103B600004E0034A12688243014B1A607047000068
:103B700024380240F0B5002100220024022500264E
:103B80000223324F3F6807F00C0121B1042905D010
:103B9000082937D105E02E4F076036E02D4F07602A
:103BA00033E02A4F3F1F3F68C7F38056274F3F1F20
:103BB0003F6807F03F036EB1264FB7FBF3F7DFF81E
:103BC0008CC0ACF1040CDCF800C0CCF3881C07FB03
:103BD0000CF40CE01E4FB7FBF3F7DFF870C0ACF14C
:103BE000040CDCF800C0CCF3881C07FB0CF4174F66
:103BF0003F1F3F68C7F301477F1C7D00B4FBF5F70B
:103C0000076002E0124F076000BF00BF0F4F3F6820
:103C100007F0F0010909104F7A5C0768D740476048
:103C20000A4F3F6807F4E051890A0B4F7A5C4768F6
:103C3000D7408760054F3F6807F46041490B064F46
:103C40007A5C4768D740C760F0BD00000838024082
:103C50000024F40000127A00940100207047000054
:103C60002DE9F04107460D460024A046AA22214630
:103C7000641C1E48425405222146641C4254AF2253
:103C80002146641C42542146641C475400222146AC
:103C9000641C4254EA782146641C4254AA782146A6
:103CA000641C42546A782046611CCCB20F490A5405
:103CB0002A782046611CCCB20C490A54601F087156
:103CC000002605E00948805D404400F0FF08761CAE
:103CD000A642F7DB2046611CCCB2044901F8008003
:103CE0002146024801F0DAF8BDE8F08164020020C4
:103CF000F0B52DED068B81B00646B0EE408AF0EEB1
:103D0000608AB0EE419AF0EE619AB0EE42AA0024C9
:103D10000027AA222146641C444842540522214619
:103D2000641C4254AF222146641C42542146641C48
:103D3000465400222146641C4254BDEEC80A10EECF
:103D4000100A00B200909DF801202146641C3748FB
:103D500042549DF800202146641C4254BDEEE80AFE
:103D600010EE100A00B200909DF801202046611C60
:103D7000CCB22E490A549DF800202046611CCCB2DA
:103D80002A490A54BDEEC90A10EE100A00B200908A
:103D90009DF801202046611CCCB224490A549DF8AC
:103DA00000202046611CCCB220490A54BDEEE90A2D
:103DB00010EE100A00B200909DF801202046611C10
:103DC000CCB21A490A549DF800202046611CCCB29E
:103DD00016490A54BDEECA0A10EE100A00B200904D
:103DE0009DF801202046611CCCB210490A549DF870
:103DF00000202046611CCCB20C490A54601F087197
:103E0000002504E00948405D3844C7B26D1CA54256
:103E1000F8DB2046611CCCB204490F54214603480C
:103E200001F03CF801B0BDEC068BF0BD640200204F
:103E30002DE9F0412DED048B82B0B0EE408AF0EE1A
:103E4000608AB0EE419A00240026002001900027ED
:103E50008046AA222146641C4B4842540522214632
:103E6000641C4254AF222146641C42540122214664
:103E7000641C425400222146641C42549FED430AB4
:103E800028EE000ABDEEC00A10EE100A00B2009043
:103E90009DF801202146641C3B4842549DF80020B7
:103EA0002146641C42549FED390A28EE800ABDEE7B
:103EB000C00A10EE100A00B200909DF801202046C2
:103EC000611CCCB230490A549DF800202146601C88
:103ED000C4B22D4842549FED2D0A29EE000ABDEED2
:103EE000C00A10EE100A00B200909DF80120214691
:103EF000601CC4B2244842549DF800202046611C36
:103F0000CCB221490A549DF807202146601CC4B256
:103F10001D4842549DF806202146601CC4B21A4830
:103F200042549DF805202046611CCCB216490A5423
:103F30009DF804202146601CC4B213484254204618
:103F4000611CCCB210490F542046611CCCB20E4902
:103F500001F80080601F0871002504E00A48405DF8
:103F60003044C6B26D1CA542F8DB2046611CCCB2C1
:103F700005490E542146044800F090FF02B0BDEC04
:103F8000048BBDE8F0810000640200200000C842FC
:103F900070B52DED028B82B0B0EE408AF0EE608AF3
:103FA00000240026AA222146641C404842540522CF
:103FB0002146641C4254AF222146641C425407220D
:103FC0002146641C425400222146641C42549FED49
:103FD000380A28EE000ABDEEC00A8DED010A9DF8F0
:103FE00007202146641C42549DF806202146641C8B
:103FF00042549DF805202146601CC4B22B4842540F
:104000009DF804202046611CCCB228490A540020A7
:1040100001909DF807202046611CCCB223490A5428
:104020009DF806202046611CCCB220490A549DF818
:1040300005202046611CCCB21C490A549DF804207E
:104040002046611CCCB219490A54B2EE040A28EE8B
:10405000800ABDEEC00A10EE100A00B200909DF872
:1040600001202046611CCCB210490A549DF8002062
:104070002046611CCCB20D490A54601F087100250E
:1040800004E00A48405D3044C6B26D1CA542F8DB2E
:104090002046611CCCB205490E542146034800F06D
:1040A000FDFE02B0BDEC028B70BD0000640200207A
:1040B0000000C8427FB582B0002400260020019095
:1040C000AA222146641C5848425405222146641CF9
:1040D0004254AF222146641C425403222146641CF0
:1040E000425400222146641C42549DF80920214676
:1040F000641C42549DF808202146641C42549DF8DB
:104100000D202046611CCCB247490A549DF80C2072
:104110002046611CCCB244490A549DF81120204627
:10412000611CCCB240490A549DF810202046611C05
:10413000CCB23D490A549DF815202046611CCCB2F2
:1041400039490A549DF814202046611CCCB23649E6
:104150000A549DF829202046611CCCB232490A54E9
:104160009DF828202046611CCCB22F490A549DF8A6
:104170002D202046611CCCB22B490A549DF82C20DE
:104180002046611CCCB228490A549DF831202046B3
:10419000611CCCB224490A549DF830202046611C91
:1041A000CCB221490A549DF835202046611CCCB27E
:1041B0001D490A549DF834202046611CCCB21A498E
:1041C0000A549DF805202146601CC4B2164842548A
:1041D0009DF804202046611CCCB213490A549DF876
:1041E00005202046611CCCB20F490A549DF80420DA
:1041F0002046611CCCB20C490A54601F087100258E
:1042000004E00948405D3044C6B26D1CA542F8DBAD
:104210002046611CCCB204490E542146024800F0ED
:104220003DFE06B070BD0000640200207FB5002492
:104230000026AA222146641C5048425405222146E9
:10424000641C4254AF222146641C4254022221467F
:10425000641C425400222146641C42549DF80120F3
:104260002146641C42549DF800202146641C42549F
:104270009DF805202046611CCCB240490A549DF8A7
:1042800004202046611CCCB23C490A549DF8092008
:104290002046611CCCB239490A549DF808202046BA
:1042A000611CCCB235490A549DF80D202046611C92
:1042B000CCB232490A549DF80C202046611CCCB285
:1042C0002E490A549DF821202046611CCCB22B496E
:1042D0000A549DF820202046611CCCB227490A547C
:1042E0009DF825202046611CCCB224490A549DF833
:1042F00024202046611CCCB220490A549DF8292074
:104300002046611CCCB21D490A549DF82820214644
:10431000601CC4B2194842549DF82D202046611CEF
:10432000CCB216490A549DF82C202046611CCCB210
:1043300012490A549DF831202046611CCCB20F4925
:104340000A549DF830202046611CCCB20B490A5417
:10435000601F0871002504E00848405D3044C6B283
:104360006D1CA542F8DB2046611CCCB203490E54FB
:104370002146024800F092FD7FBD0000640200204B
:104380000CB50020019000903348006840F4803064
:104390003149086000BF3048006800F400300090E8
:1043A0000198401C0190009818B90198B0F5A04FF1
:1043B000F1D12948006800F4003010B101200090CC
:1043C00001E0002000900098012844D122484030AC
:1043D000006840F080502049403108601F48006864
:1043E00040F440401D4908601B48083000681A49E5
:1043F000083108600846006808600846006840F414
:10440000805008601648091F0860081F006840F0C7
:104410008070091F086000BF0F48006800F000703E
:104420000028F9D040F202700E4908600A480830AE
:10443000006820F003000849083108600846006859
:1044400040F00200086000BF03480830006800F038
:104450000C000828F8D10CBD003802400070004064
:1044600008544107003C0240042808D14FF0E021E5
:10447000096941F004014FF0E022116107E04FF0BB
:10448000E021096921F004014FF0E0221161704739
:1044900010B5FBF70FFF044606480078401C05499D
:1044A00008702046FBF70AFFFEF778F9FDF7A8FE33
:1044B00010BD0000640100207FB56846FFF75AFB7D
:1044C0004FF47A720098B0FBF2F1481EB0F1807F91
:1044D00000D31BE0481E4FF0E022506150170F221E
:1044E000002807DA13071D0E094B00F00F04241FE4
:1044F0001D5503E013071C0E064B1C5400BF002083
:104500004FF0E02290610720106100BF7FBD0000E6
:1045100018ED00E000E400E010B51548006840F434
:104520007000134908601348006840F00100114909
:10453000086000200F49083108600E4800680E49E5
:1045400008400C4908600D48091D0860081F0068F4
:1045500020F48020091F0860002006490C31086003
:10456000FFF70EFF4FF0006001498039086010BD71
:1045700088ED00E000380240FFFFF6FE1030002416
:10458000F0B50C46154600210022068C4FF6FE774A
:104590003E400684018B028C4FF60C7631407E1C27
:1045A00006EA03162E4331434FF6F576324044F0C7
:1045B0000106324301830284F0BDF0B50C46154676
:1045C000002100220026078C4FF6EF7C07EA0C073B
:1045D0000784018B028C4FF6FF7707EA041640F63A
:1045E000FF4739404FF6FF7707EA033739434FF665
:1045F000FF7707EA052739434FF65F773A4046F0E1
:1046000010073A4301830284F0BDF0B50C4615460D
:10461000002100220026078C4FF6FF6C07EA0C07EA
:104620000784818B028C4FF6FF7707EA04264FF64A
:104630000C7739404FF6FF7707EA03172F433943CA
:104640004FF2FF573A4046F480773A438183028421
:10465000F0BDF0B50C461546002100220026078C5F
:104660004EF6FF7C07EA0C070784818B028C4FF61D
:10467000FF7707EA043640F6FF4739404FF6FF77E9
:1046800007EA052739434FF6FF7707EA033739432F
:1046900045F6FF773A4046F480573A4381830284D7
:1046A000F0BD704710B500F001F810BD002054E0D7
:1046B0002B490988421C01239340194000294AD004
:1046C00027490988012393409943254A11802549A8
:1046D000095C59B30021234A11542149243151F86E
:1046E0002010214A02EB800251801F4901EB80011A
:1046F00049881D4A32F82020891A1C4A32F81020B5
:10470000C2EB024211441A4A22F810100021174A43
:1047100022F810101249103109888200521C01231E
:10472000934099430E4A1032118014E001210D4A42
:1047300011540B49243151F820100B4A22F8201053
:104740000749103109888200521C01239340194304
:10475000034A10321180411CC8B20428A8DB7047FC
:10476000100C00408A000020982A00208E000020B3
:104770006C00002021B1028842F00102028004E0B6
:1047800002884FF6FE731A400280704710B5044647
:104790005548844208D101210846FFF7DBF9002182
:1047A0000120FFF7D7F99DE0B4F1804F08D1012136
:1047B0000846FFF7BFF900210120FFF7BBF991E0A0
:1047C0004A48844208D101210220FFF7B3F90021B1
:1047D0000220FFF7AFF985E04548844208D1012166
:1047E0000420FFF7A7F900210420FFF7A3F979E0DF
:1047F0004048844208D101210820FFF79BF900219D
:104800000820FFF797F96DE03B48844208D1012169
:104810001020FFF78FF900211020FFF78BF961E0DE
:104820003648844208D101212020FFF783F9002176
:104830002020FFF77FF955E03148844208D101215B
:104840000220FFF787F900210220FFF783F949E0F2
:104850002C48844209D101210804FFF77BF900218B
:104860004FF48030FFF776F93CE02748844209D1C5
:1048700001214804FFF76EF900214FF40030FFF7E3
:1048800069F92FE02148844209D101218804FFF70A
:1048900061F900214FF48020FFF75CF922E01C4809
:1048A000844208D101214020FFF744F90021402033
:1048B000FFF740F916E01748844208D10121802013
:1048C000FFF738F900218020FFF734F90AE0124899
:1048D000844207D101218015FFF72CF90021A01592
:1048E000FFF728F910BD000000000140000400405F
:1048F00000080040000C0040001000400014004080
:1049000000040140004001400044014000480140D3
:1049100000180040001C00400020004070B5054613
:104920000C46208850B92389A28861882846FFF761
:1049300027FEE188284600F031F825E02088042889
:104940000AD12389A28861882846FFF736FEE188CC
:10495000284600F02CF817E0208808280AD123897F
:10496000A28861882846FFF750FEE188284600F0BB
:104970002BF809E02389A28861882846FFF769FEA1
:10498000E188284600F029F870BD1AB183890B43ED
:10499000838102E083898B4383817047028B4FF6CA
:1049A000F3731A400283028B0A4302837047028B1F
:1049B0004FF2FF331A400283028B4FF6FF7303EA74
:1049C00001231A4302837047828B4FF6F3731A4018
:1049D0008283828B0A4382837047828B4FF2FF333C
:1049E0001A408283828B4FF6FF7303EA01231A4336
:1049F0008283704700220288184B98420ED0184BD1
:104A000098420BD0B0F1804F08D0164B984205D099
:104A1000154B984202D0154B984204D14FF68F7334
:104A20001A404B881A43124B984207D0114B9842B8
:104A300004D04FF6FF431A400B891A4302804B689B
:104A4000C3620B880385054B984202D0044B984201
:104A500001D18B7A038601238382704700000140D5
:104A6000000401400004004000080040000C004029
:104A7000001000400014004053E0FCF741FAFCF73E
:104A8000FDF8E8BB2748B0F9040004EE900AF8EE00
:104A9000E44AB0EE644A2348B0F9020004EE900AFA
:104AA000F8EEE44AF0EE643A1E48B0F9000004EE75
:104AB000900AF8EEE44AB0EE643A1B48B0F90400FC
:104AC00004EE900AF8EEE44AF0EE642A1648B0F9D3
:104AD000020004EE900AF8EEE44AB0EE642A1248AE
:104AE000B0F9000004EE900AF8EEE44AF0EE641A21
:104AF0000E48D0ED024AB0EE641AD0ED014A00E053
:104B00000CE0F0EE640AD0ED004AB0EE640AFBF768
:104B10008DFC074890ED000AFCF720FB0120FDF713
:104B200001FEAAE71C00002004000020A4010020D0
:104B3000240000202DED028B86B0B4E05A48B0F975
:104B400004005949B1F90210574AB2F90020574BF5
:104B5000B3F90430CDE90132CDE903105348B0F97F
:104B6000020000EE100AB8EEC00ADFED510A20EE96
:104B7000200ABDEEC00A10EE100A00B24B4C0090A5
:104B8000B4F900304B4CB4F90420B4F90210B4F974
:104B90000000FFF74BFB484890ED000ADFED470AA5
:104BA00080EE201AB0EE418AF0EE480A444890EDBB
:104BB000000AFFF7EDF9434890ED000ABDEEC00A88
:104BC00010EE100A01B2404890ED000ABDEEC00A96
:104BD00010EE100A00B23D4A92ED000ABDEEC00A86
:104BE00010EE102A12B23A4B93ED000ABDEEC00A45
:104BF00010EE103A1BB2374CCDE90032CDE902017C
:104C0000648823B2334CE48822B2324C248821B227
:104C1000304CA48820B2FFF74DFA2F4890ED000ADF
:104C20002E48D0ED000A30EE600A2D48D0ED000A83
:104C300020EE200ADFED210A20EE200ABDEEC00A98
:104C40008DED050A05A9F120FFF70AF8254800783F
:104C5000059005A9F220FFF703F89FED232A2348CA
:104C6000D0ED001A224890ED001A2248D0ED000A3B
:104C7000214890ED000AF320FFF73AF8FBF7FEFF1A
:104C800070B91E48D0ED001AB0EE611AD0ED021ACC
:104C9000F0EE610AD0ED011AB0EE610AFFF7C8F834
:104CA0000A20FDF73FFD49E71C000020100000200E
:104CB000F1FF793D040000202C0000200000C842D4
:104CC00034000020800000207C00002078000020BC
:104CD000740000206C000020240000202800002028
:104CE0003000002058000020000000006800002074
:104CF00064000020600000205C000020B001002063
:104D000009E0FDF787F9FBF7B9FF08B9FCF7F2FFF7
:104D10000320FDF707FDF4E710B50446FBF788FF15
:104D2000362012490860091D0860091D0860091D28
:104D3000086041F28830FDF7F5FCFDF763FF0823BA
:104D40000B4A00210B48FDF719FB06230A4A0021F4
:104D50000A48FDF713FB0723094A00210948FDF71C
:104D60000DFBFF20FDF7B2FB10BD00003404004036
:104D7000941A0020354B000894220020794A00083C
:104D8000942A0020014D00087047000010B540F241
:104D90002661064800F0B4F838B140F226610348B5
:104DA00000F092F801200249087010BD0014014083
:104DB0008800002010B5FFF7E9FF10BDF0B52DED1C
:104DC000028B83B005460E46304905FB01F000EE2C
:104DD000100AF8EE400A300100EE100AB8EE400A60
:104DE00080EE801AB0EE418ABCEEC80A10EE100ABE
:104DF00084B200EE104AB8EE400A38EE400AF3EEF4
:104E0000000A20EE200ABCEEC00A10EE107A4FF61F
:104E1000FF7000EA0414E01984B21D48006840F0F5
:104E200004001B4908601A481430006840F0200054
:104E30001749143108600120022100230A46CDE9F8
:104E40000010C0211348FBF7EAFF08220621114891
:104E5000FBF74FFF082207210E48FBF74AFF0E48D9
:104E60000480001D008820F400400B49091D0880C3
:104E70000846008840F0080008800846008840F492
:104E80000050088003B0BDEC028BF0BD40420F0023
:104E900030380240000802400814014070B5054651
:104EA0000E4600240BE000BF4021064800F01BF82E
:104EB0000028F9D0295D034800F04CF8641CB44286
:104EC000F1DB70BD0014014010B50022002340F654
:104ED0006A14A14200D100BF0A1201249440A3B277
:104EE000DC43048010BD02460020B1F5007F00D1F4
:104EF00000BF13880B400BB1012000E00020704779
:104F000070B50246002400230025002040F66A16F2
:104F1000B14200D100BFC1F3421501F01F030126C9
:104F200006FA03F3012D02D19689334006E0022DE3
:104F300002D1168A334001E0968A33400C120126D2
:104F400006FA04F41688344013B10CB1012000E0D5
:104F5000002070BDC1F308028280704700BFFEE7E9
:104F600003B401984100009850EAC12018BF042002
:104F70004A0D18BF40F0010040F2FF72B2EB515FE2
:104F800008BF40F00200012808BF052002B07047AA
:104F900070B5C1482DED020B2DED0E8B82B0119D29
:104FA00025F000449FEDBEDB9FEDBFEB84423EDB6E
:104FB000A4F140511098A1F17F6108430FD0BC4883
:104FC000844202DC28D1109830B39DED100B02B062
:104FD000BDEC0E8B02B0BDE8704001F0F1BE9DED5E
:104FE000100B53EC1D2B51EC100B02F013FB9DED3D
:104FF000100B41EC180B53EC1E2B51EC100B02F074
:1050000009FB53EC182B02F05BF841EC100B02B0DB
:10501000BDEC0E8B02B070BD0120FBF7A7F902B00A
:10502000BDEC0E8B02B0BDE8704001F0DDBEA148C2
:105030009FEDA18B844256DA9DED100BB4F1795FA0
:105040000ADA51EC100BFFF78BFF042808BF01F0C0
:10505000EBFE9DED100BDAE753EC102B51EC100B2F
:1050600002F0D8FA41EC190B95480621B0EE490A36
:10507000F0EE690A784401F077FD53EC192B51ECFE
:10508000100B02F0C7FA41EC1A0B8E48B0EE490A39
:10509000F0EE690A0421784401F066FD53EC192B07
:1050A00051EC100B02F0B6FA53EC182B02F008F892
:1050B00041EC100B51EC1A0B53EC102B02F0BCF826
:1050C000CDE900019DED000B53EC102B9DED100B75
:1050D00051EC100B02F09EFA9DED101B53EC112BBE
:1050E00001F0EEFFD2E09DED100B51EC100B01F042
:1050F00007FF53EC182B02F0C1FB9FED730BCDE9BA
:10510000000153EC102B9DED000B51EC100B02F045
:1051100081FA41EC190B6E480621B0EE490AF0EE17
:10512000690A784401F020FD53EC192B51EC100B67
:1051300002F070FA41EC1B0B6648B0EE490AF0EE43
:10514000690A0421784401F00FFD53EC192B51EC4E
:10515000100B02F05FFA53EC182B01F0B1FF41EC99
:105160001C0B51EC190B01F035FF41EC180B5A48A0
:105170009FED5BABA04222DC53EC1C2B51EC1B0BD4
:1051800002F05AF8CDE900019DED000B51EC180B2F
:1051900053EC102B02F03EFA53EC182B01F090FF69
:1051A00053EC1A2B02F036FA53EC1D2B02F03EFCA6
:1051B00053EC1E2B02F062FB41EC100B5FE08DED17
:1051C000008B002000909DED000B51EC180B53EC70
:1051D000102B01F075FF9DED000B41EC1E0B53EC05
:1051E000102B51EC100B02F015FA53EC192B02F0B6
:1051F00045FB53EC1E2B02F01FF841EC190B53EC4E
:105200001C2B51EC1B0B02F017F841EC1B0B53EC61
:105210001A2B51EC190B02F0FDF953EC1D2B02F087
:105220002DFB41EC190B53EC1A2B51EC180B02F02F
:10523000F1F953EC1B2B02F0EDF953EC192B02F0B2
:10524000F5FB9DED000B41EC180B53EC1A2B51ECC8
:10525000100B02F0DFF99FED249B53EC192B02F0A9
:105260000DFB41EC100B51EC180B53EC102B02F022
:10527000DDFB53EC192B02F001FB41EC100B002D70
:105280003FF7C5AE51EC100B01F0DBFE41EC100B0B
:10529000BDE60000000000000000F03F000000003C
:1052A000075C143326A6913C182D4454FB21F93F8A
:1052B0000000F07F0000E03F000000000000F03F31
:1052C000702E00007E2E0000000000000000E03F75
:1052D000C22D0000D02D00003333EF3F000000004E
:1052E0000000000000000040182D4454FB21E93F5D
:1052F00070B59B482DED020B2DED068B079D25F01B
:105300000044A04218DC9748844202DC0AD1069887
:1053100040B19DED060BBDEC068B02B0BDE87040C0
:1053200001F04EBD002DCCBF9FED8F0B9FED900B7C
:10533000BDEC068B02B070BD8F48A04215DD8F48D2
:10534000A042D8BF4FF0FF3458DD9DED060B51EC65
:10535000100BFFF705FE042808BF01F065FD9DED69
:10536000060BBDEC068B02B070BD9DED060B51EC3B
:10537000100B01F0C5FDCDE9060181489FED828B40
:10538000A0423CDD8248A0421FDD00249FED82AB9D
:105390009DED060B53EC1A2B51EC100B01F090FE17
:1053A0009DED060B41EC190B53EC1A2B51EC100B35
:1053B00002F030F953EC182B02F038FB53EC192BA8
:1053C00001F03AFFCDE9060149E09DED060B01240D
:1053D00053EC182B51EC100B01F072FE9DED060BF7
:1053E00041EC190B53EC182B51EC100B02F01EFB87
:1053F00053EC192B01F020FFCDE906012FE068489E
:10540000A0421FDD02249FED689B9DED060B53EC2F
:10541000192B51EC100B02F0FDF853EC182B01F096
:105420004FFE9DED060B41EC180B53EC192B51EC84
:10543000100B02F0FBFA53EC182B01F0FDFECDE946
:1054400006010CE09DED060B032453EC102B9FEDA1
:10545000580B51EC100B01F0EFFECDE906019DED6C
:10546000060B53EC102B51EC100B02F0D3F841EC6F
:10547000180B53EC182B02F0CDF841EC190B4E48E9
:105480000621B0EE490AF0EE690A784401F06CFB9F
:1054900053EC182B51EC100B02F0BCF841EC180B3C
:1054A0004648B0EE490AF0EE690A0521784401F059
:1054B0005BFB53EC192B51EC100B02F0ABF841ECF9
:1054C000100B51EC180B53EC102B002C0EDA01F0E2
:1054D000F7FD9DED061B53EC112B02F09BF89DEDA3
:1054E000061B53EC112B02F0C9F935E001F0E8FD81
:1054F0009DED061B53EC112B02F08CF841EC100BC8
:105500002F48784400EBC40090ED001B51EC100BC9
:1055100053EC112B02F08AFA9DED061B53EC112B74
:1055200002F084FA41EC100B2648784400EBC400EA
:1055300090ED001B51EC100B53EC112B02F09EF977
:1055400041EC100B002DA2BFBDEC068B02B070BD6C
:1055500051EC100B01F075FD41EC100B01E7000060
:10556000000010440000F07F182D4454FB21F93F47
:10557000182D4454FB21F9BF0000DC3F0000203E01
:105580000000F33F00000000000000000000F03FBA
:105590000000E63F000000000000000000000040A6
:1055A0000080034000000000000000000000F83F01
:1055B000000000000000F0BF9A2B0000502B0000FC
:1055C000DA2A0000922A000070B56B4E2DED040B14
:1055D0002DED028B82B0DDF81CC0DDE905235C42B5
:1055E0002CF000411C4341EAD474049D22F0004099
:1055F000B44205D86C422C4340EAD474B4420BD96F
:105600009DED061B9DED040B02B0BDEC028B04B0BA
:10561000BDE8704001F0DEBBACF14054A4F17F6402
:105620001C430BD0022404EAAC7444EAD274054350
:105630009FED538B9FED542B07D015E09DED040B90
:1056400051EC100B01F000FC42E0002C11BF012CCA
:105650009DED040B02B0BDEC028B04BF04B070BD25
:10566000022C38D0032C3BD00B439FED491B9FED00
:105670004A0B0AD0B14218D1B04209D121F0804181
:1056800020F08040079105900FE0002A15DA10E025
:10569000434B7B44002C08BF93ED000B0DD0012C35
:1056A00010D0022C17D0032C1AD0B0421DD1002AE2
:1056B00003DAB0EE410AF0EE610A02B0BDEC028BF3
:1056C00004B070BD93ED000B51EC100B01F0B9FC70
:1056D00041EC100BF1E7B0EE480AF0EE680AECE797
:1056E000B0EE420AF0EE620AE7E7401A00153C28E5
:1056F000C8BF8DED000B19DCBCF1000FBEBF10F16F
:105700003C0F9FED290B8DED000B0FDB9DED060B84
:1057100053EC102B9DED040B51EC100B01F08CFDA4
:1057200001F0EEFB01F090FBCDE90001002C08BF79
:105730009DED000BC1D0012C10D0022C9FED1C0B55
:1057400053EC102B9DED000B51EC100B0DD002F023
:105750006DF953EC182B02F069F9B9E7019880F064
:10576000004001909DED000BA7E702F05FF953ECBC
:10577000182B02F083F8ABE70000F07F0000000078
:10578000182D4454FB210940182D4454FB2109C015
:10579000182D4454FB21F9BF182D4454FB21F93F27
:1057A000F2290000000000000000000000000000DE
:1057B000075C143326A6A13C10B52F499FED2C1B86
:1057C0002DED020B84B0059820F000408842D8BF30
:1057D0009DED040B2DDD2949884209D1049840B97B
:1057E0004FF00100FAF7C2FD01F0FEFA06B010BD5D
:1057F00005DB9DED040B01F0E3FA06B010BD684631
:105800009DED040B00F0DCFE10F0030004BF9DEDE5
:10581000021B9DED000B0CD001280ED09DED021B4C
:105820009DED000B022817D0012001F019FA06B0F7
:1058300010BD01F0E1F806B010BD9DED021B9DED1D
:10584000000B012001F00CFA51EC100B01F0F9FBF8
:1058500006B041EC100B10BD01F0CEF851EC100B6E
:1058600001F0EFFB06B041EC100B10BD0000000092
:105870000000000000000000FB21E93F0000F07F75
:105880002DE9F04D2DED040B2DED0C8B96B0DDE9DF
:105890002350259CDDF888A025F0004624F0004820
:1058A000BAF1000F14BF0121002101EB4502FE49AE
:1058B00053184A1093422AD3002814BF012300230F
:1058C00003EB44030B44F9498B4220D358EA00010F
:1058D0009FEDF78B6FD0DFF8E0B35D4503D1BAF1F0
:1058E000000F05D187E0BAF1000F08BF002100D0FA
:1058F000012101EB450111F5001F08D8002814BF54
:105900000121002101EB440111F5001F0BD99DED90
:10591000241B9DED220B16B0BDEC0C8B04B0BDE832
:10592000F04D01F057BA0027002DBCBFE349884570
:1059300021DAE3498845A8BF02271CDAC3451ADCEF
:10594000E04901EB2851142908DDC1F1340220FAA5
:1059500002F101FA02F282420DD108E058B9C1F118
:10596000140228FA02F101FA02F2424503D101F0D1
:105970000101C1F1020756EA0A011DD1002C1BDA10
:10598000002D18BF022F01D0012F0AD00220FAF7F4
:10599000EDFC16B0BDEC0C8B04B0BDE8F04D01F091
:1059A000F7B90220FAF7E2FC01F0F2F951EC100B22
:1059B00001F047FB83E01EE09FEDC39B9FEDC4AB6E
:1059C000002872D1BD4880452DD105F1804010F5E9
:1059D000801008BFBAF1000F0DD0B34515DC002CC4
:1059E000A1BF9DED240B16B0BDEC0C8B04B0A8BF7D
:1059F000BDE8F08D12E0B0EE480AF0EE680A16B08D
:105A0000BDEC0C8B04B0BDE8F08D002C06DA9DEDEA
:105A1000240B51EC100B01F014FB50E0AE4878441D
:105A200090ED000BEBE7D8454FD1002C4ADA2EB1B0
:105A300086423BD1BAF1000F44D126E0BAF1000F03
:105A400013D00220FAF792FC01F0DEF98DED020B83
:105A50009DED220B8DED000B10EE900A039961F382
:105A60001E0003909DED020BC9E78DED029B9DED9D
:105A7000220B19EE901A10EE900A8DED000B61F3D7
:105A80001E0003909DED020BB9E78DED02AB9DED7D
:105A9000220B1AEE901A10EE900A8DED000B61F3B6
:105AA0001E0003909DED020BA9E729E00ADA9DEDA7
:105AB000220B51EC180B53EC102B01F0BDFB41EC09
:105AC000100B9CE79DED220B99E7864218DAB4F1A2
:105AD000804F0DD0A4F10050B0F1FF5010D1002D37
