:020000040800F2
:1000000040060020A9010008DF2900086B20000835
:10001000DD290008F9070008B532000800000000DB
:10002000000000000000000000000000032A00089B
:10003000FB07000800000000012A0008052A00084C
:10004000C3010008C3010008C3010008C301000880
:10005000C3010008C3010008C3010008C301000870
:10006000C3010008C3010008C3010008C301000860
:10007000C3010008C3010008C3010008C301000850
:10008000C3010008C3010008C3010008000000000C
:10009000000000000000000000000000C301000894
:1000A000C3010008C3010008C3010008F52A0008C5
:1000B000C3010008C3010008C3010008C301000810
:1000C000C3010008C3010008C3010008C301000800
:1000D000C3010008A9320008C301000800000000A5
:1000E000C3010008C3010008C301000800000000AC
:1000F000000000000000000000000000C301000834
:1001000000000000C3010008C3010008C30100088B
:1001100000000000000000000000000000000000DF
:10012000C3010008C3010008C3010008C30100089F
:10013000C3010008000000000000000000000000F3
:10014000000000000000000000000000C3010008E3
:10015000C3010008C3010008C3010008C30100086F
:10016000C3010008C30100080000000000000000F7
:10017000000000000000000000000000000000007F
:1001800000000000C30100080000000000000000A3
:10019000C3010008DFF80CD000F01CFB004800474A
:1001A000C53B000840060020064880470648004737
:1001B000FEE7FEE7FEE7FEE7FEE7FEE7FEE7FEE717
:1001C000FEE7FEE7A12A0008950100082DE9F05F8F
:1001D0000546002092469B468846064681464024B6
:1001E0001BE0284641464746224600F00DFA53469A
:1001F0005A46C01A914110D311461846224600F0C3
:10020000F4F92D1A67EB01084F4622460120002120
:1002100000F0EBF917EB00094E41201EA4F1010498
:10022000DFDC484631462A464346BDE8F09F2DE9CB
:10023000FE4F804681EA0300C00F0C46009021F07B
:10024000004123F00045B8EB0200A94105D2404629
:10025000214690461C460B46024623F000401043C0
:1002600047D0270DC7F30A00C3F30A510290401A82
:10027000019040286BDAC3F3130040F4801B009810
:10028000924620B10023D2EB030A63EB0B0B0198DB
:100290005946C0F14002504600F0A7F906460D4607
:1002A00050465946019A00F0BFF910EB0800614131
:1002B000002487EA115284EAE7731A4340D0009A77
:1002C00062B3019A012A4FEA075215DC001B61EB69
:1002D00002014FF0004202EA0752CDE90042001C41
:1002E00041F5801132462B4600F0F6F903B0BDE827
:1002F000F08F40462146F9E7001B61EB0201001C2C
:1003000041F5801300185B412018A2F5001747EB58
:10031000030140EAD570B6196D4111E06D084FEA4E
:10032000360645EAC0754FEA0752001B61EB020131
:10033000001C41F5801149084FEA30000019514175
:1003400032462B4603B0BDE8F04F00F0B6B9009836
:10035000012240000023D0EB020263EBE07300981F
:1003600021464FEAE074B8EB000061EB0401E9E7D5
:1003700083F000435BE781F0004158E72DE9FE4F31
:1003800081EA030404F0004421F0004100944FF09E
:10039000000B23F0004350EA01045ED052EA03044C
:1003A0005BD0C3F30A54C1F30A552C44A4F2F334CE
:1003B0000194A0FB0254C1F3130141F48011C3F373
:1003C000130343F4801301FB024400FB034E840A31
:1003D000970A44EA815447EA8357A4FB07680295C9
:1003E0008D0A05FB07854FEA932C04FB0C54270567
:1003F000029D4FEA065847EA1637B5EB08056EEB43
:10040000070C870E920E47EA811742EA8312A7FB78
:100410000201B6EB0B0164EB00042B0D43EA0C3335
:100420005E1844EB1C50DA465146E7FB0201C5F367
:1004300013044FEA0B3343EA14534FEA0432019C8E
:1004400043EA0603A4F10C040294009CCDE900B435
:1004500000F042F903B0BDE8F08F00200146F9E753
:100460002DE9F04D81EA030404F0004B21F0004532
:1004700014464FF0000A23F0004150EA050220D054
:1004800054EA01021DD0C5F30A570246C5F313030F
:10049000C1F31300C1F30A5640F4801543F48013EE
:1004A000A7EB0608101BD64608F2FD3873EB0500D3
:1004B00002D308F1010801E092185B41B8F1000F86
:1004C00003DA00200146BDE8F08D00204FF48011D2
:1004D000064684460EE0171B73EB050705D3121B77
:1004E00063EB050306434CEA010C49084FEA300070
:1004F00092185B4150EA0107EDD152EA030012D095
:1005000082EA040083EA0501084305D0101BAB41D1
:1005100006D20122002306E000224FF0004302E051
:100520006FF0010253101AEB06004CEB085110EB70
:100530000A0041EB0B01BDE8F04D00F0BEB80EB56E
:10054000C10F80EAE0700844CA07002140F233433B
:100550008DE80E000A460B4600F0BEF803B000BD61
:1005600000F0004230F000400AD0C10D01F560718A
:10057000C0F3160042EA0151C20840071143704718
:1005800000200146704701F0004330B421F00041E3
:1005900050EA010206D00A0DA2F56072C1F3130100
:1005A000002A02DC30BC00207047440F44EAC1043A
:1005B000C100E01830BC00EBC25000F047B830B5C5
:1005C0000B46014600202022012409E021FA02F511
:1005D0009D4205D303FA02F5491B04FA02F52844AB
:1005E000151EA2F10102F1DC30BD202A04DB203A05
:1005F00000FA02F1002070479140C2F1200320FA76
:1006000003F3194390407047202A04DB203A21FA73
:1006100002F00021704721FA02F3D040C2F120021B
:100620009140084319467047202A06DBCB17203A31
:1006300041FA02F043EAE07306E041FA02F3D040E7
:10064000C2F1200291400843194670470029A8BF13
:100650007047401C490008BF20F00100704710B4EB
:10066000B0FA80FC00FA0CF050EA010404BF10BCA0
:10067000704749B1CCF1200421FA04F411FA0CF1CD
:1006800018BF012121430843A3EB0C01CB1D4FEA06
:1006900000614FEA102042BF002010BC704700EB01
:1006A000C35010440029A4BF10BC7047401C49002F
:1006B00008BF20F0010010BC704710B5141E73F184
:1006C000000408DA401C41F1000192185B411A4312
:1006D00001D120F0010010BD2DE9F04D92469B465E
:1006E00011B1B1FA81F202E0B0FA80F22032904604
:1006F000FFF77BFF04460F4640EA0A0041EA0B0180
:1007000053465A46084313D0114653EA010019D004
:10071000C8F140025046FFF777FF05460E465046A7
:1007200059464246FFF761FF084305D0012004E027
:1007300020463946BDE8F08D0020054346EAE076C4
:100740002C4337430A986305E40AA0EB0800002213
:10075000FD0A44EA47540A3002D500200146E9E781
:10076000010510196941DDE9084500196941BDE835
:10077000F04DA2E7C1F30A52C1F3130140F2FF3377
:1007800041F480119A4202DA00200146704740F29B
:1007900033439A42A2F2334202DC5242FFF734BFA3
:1007A000FFF723BF30B5041E71F1000404DB4FF0E6
:1007B0000044404264EB0101141E73F1000405DBA8
:1007C0001C464FF00043524263EB0403994208BFBA
:1007D000904230BD064C074D06E0E06840F0010352
:1007E00094E8070098471034AC42F6D3FFF7D6FCE4
:1007F000A83D0008C83D0008FEE7704790F8351096
:10080000022903D08021416501207047052180F82D
:1008100035100068016821F0010101600020704777
:1008200070B5044600F0D2F80546601C02D00448BA
:100830000078044400F0CAF8401BA042FAD370BD0F
:10084000580000202DE9F84FDFF860B100224FF08A
:1008500001084FF0030A4FF00F090BF1040E00BF1F
:100860000B6808FA02F42340A3426ED14D68022DB2
:1008700001D0122D0ED1D50800EB850CDCF82050EC
:100880005607F70E09FA07F6B5430E69BE402E4328
:10089000CCF82060066855000F790AFA05FC07F0CD
:1008A000030726EA0C06AF40374307604E68012E67
:1008B00005D0022E03D0112E01D0122E0ED1866843
:1008C000CF6826EA0C06AF40374387604668A643E8
:1008D0000C79C4F30014944034434460C6688C68B7
:1008E00026EA0C06AC403443C4604C68E40056D59C
:1008F0002F4C256845F480452560246822F00305C7
:1009000004F4804400942B4C2E19D6F8084895071F
:100910002F0F09FA07F5AC43274DA84201D1002556
:1009200015E0264DA84201D1012510E0244DA84232
:1009300001D102250BE0234DA84201D1032506E099
:10094000214DA84202D1042501E028E00725BD4041
:100950002543C6F80858DBF800405D464E689C43C6
:10096000F60300D51C432C60DEF8004075464E6847
:100970009C43B60300D51C432C600C4D08352C68F5
:100980004E689C43F60200D51C432C60074D0C3585
:100990002C684E689C43B60200D51C432C60521C48
:1009A000102AFFF45DAFBDE8F88F0000003C014065
:1009B0004438024000300140000002400004024080
:1009C00000080240000C024000100240014880680C
:1009D000704700005800002070B5040004D094F85F
:1009E0003D00002510B106E0012070BD84F83C50A8
:1009F000204600F011FA242084F83D0020680168A8
:100A000021F00101016000F08DFB33492268B0FB49
:100A1000F1F15160314A6368934206D94FF49673FD
:100A200059434FF47A73B1FBF3F12368491C1962FF
:100A3000616891420BD84900B0FBF1F2C2F30B029E
:100A4000042A01D2042019E0B0FBF1F016E0A368FB
:100A50009BB301EBC10202EB0112B0FBF2F242F4D4
:100A60008042120530D04BB301EBC10202EB011101
:100A7000B0FBF1F040F4804040F400402168C861D0
:100A8000D4E90701084321680860D4E9031008434A
:100A900021688860D4E9050108432168C86020689E
:100AA000016841F0010101602564202084F83D00C7
:100AB000256384F83E50002070BD00E006E001EBA5
:100AC0004102B0FBF2F2CCE70120D7E701EB410194
:100AD000B0FBF1F0D0E7000040420F00A08601001B
:100AE0002DE9FF4F83B09A46DDE91187934604460E
:100AF000DDF84090FFF76AFF054694F83D00202896
:100B000074D11923012272492046009501F0B1FBEE
:100B10000028F5D194F83C00012867D0012084F822
:100B20003C0020680168C90703D1016841F0010158
:100B300001602068016821F400610160222084F8CE
:100B40003D00402084F83E0000262664C4F824902E
:100B5000A4F82A805F48E062608D2085CDE90075A9
:100B600053465A462046049901F094FA28B1206C65
:100B700084F83C60042843D076E0208DC8B1012879
:100B800020D00228206823D0416980690090208D00
:100B900003286BD801282AD04F4902283B464FF042
:100BA000000200955BD08846204601F062FBE8BB5E
:100BB00040E02068416981690091016841F4007159
:100BC000016076E02068016821F480610160F0E74F
:100BD000016821F4806101602068016841F40061CE
:100BE0000160206841698069009062E06EE02A46F9
:100BF0003946204601F0B2FB30B1206C202833D0BA
:100C0000012007B0BDE8F08F206847E02068016848
:100C100041F40071016020680169606A421C6262EF
:100C20000170208D401E2085608D00E01CE0401E7C
:100C30006085E9E72068016821F48061016020682F
:100C40000169606A421C62620170208D401E20852D
:100C5000608D401E60853B4600224146009520463F
:100C600001F007FB0028D1D00320CAE72A46394605
:100C7000204601F073FB0028BFD120680169606A3B
:100C8000421C62620170208D401E2085608D401ED6
:100C9000608520684169C94349070AD40169606ACF
:100CA000421C62620170208D401E2085608D401EB6
:100CB0006085208D00287FF46AAF202084F83D00F5
:100CC00084F83E6084F83C6000209AE7022098E7B0
:100CD000020010000000FFFF040001002DE9FF4F9B
:100CE00083B09A46DDE9118793460446DDF84090CB
:100CF000FFF76CFE064694F83D0020287DD11923AD
:100D0000012243492046009601F0B3FA00287CD125
:100D100094F83C00012878D0012084F83C00206839
:100D20000168C90703D1016841F001010160206831
:100D3000016821F400610160212084F83D00402019
:100D400084F83E0000252564C4F82490A4F82A8085
:100D50003048E062608D2085CDE9007653465A46E2
:100D60002046049901F00EFA80B3206C84F83C50C0
:100D7000042848D008E032463946204601F01FFBDF
:100D800030B1206C042839D0032007B0BDE8F08FC3
:100D9000606A411C6162216800780861208D401EF4
:100DA00080B22085618D491E618521684A69D243E0
:100DB00052070BD468B1606A421C62620078086115
:100DC000208D401E2085608D401E6085208D00286E
:100DD000D1D132463946204601F024FA0028D0D13C
:100DE00054F83D0B016841F400710160202004F8C3
:100DF0001E09E57765770020C7E706E020680168EF
:100E000041F4007101600120BFE70220BDE700004E
:100E1000020010000000FFFF00B500680E4987B017
:100E2000884217D14FF4C070009012200190012029
:100E30000290032003900420049069460748FFF7BE
:100E400001FD0748016841F400110160006800F4E9
:100E50000010059007B000BD00540040000402409F
:100E6000403802400248816802781144816070472E
:100E7000580000200B4810B5016841F40071016072
:100E8000016841F480610160016841F48071016092
:100E9000032000F097F8002000F006F800F024F896
:100EA000002010BD003C024070B50D4D04464FF4CB
:100EB0007A712878B1FBF0F00A490968B1FBF0F0CB
:100EC00000F01DFB48B9102C07D200222146501E0D
:100ED00000F058F800206C6070BD012070BD00006B
:100EE00058000020640000201F4808B5016841F444
:100EF00080410160006800F4804000901A48001FA3
:100F0000016841F080510160006800F0805000905D
:100F1000032000F057F8002211466FF00B0000F09C
:100F200031F8002211466FF00A0000F02BF8002281
:100F300011466FF0090000F025F800221146501FFD
:100F400000F020F800221146101F00F01BF80022CC
:100F50001146901E00F016F80022BDE80840114628
:100F6000501E00F00FB800004438024000F01F028D
:100F7000012191404009800000F1E020C0F80011FB
:100F800070470000F0B40E4B1B680C46C3F30223FD
:100F9000C3F10705042D00D90425191D072901D225
:100FA000002300E0DB1E012606FA05F1491E214060
:100FB00099409E40761E16403143F0BC01F010BDB2
:100FC0000CED00E0064900F0070208684FF6FF0349
:100FD000184040EA0220034A1043086070470000AE
:100FE0000CED00E00000FA052DE9F0470E46050083
:100FF00065D0DFF81481D8F80000F7B200F00F00D8
:10100000B04207D288F80070D8F8000000F00F0056
:10101000B04254D128683D4C810712D5400703D512
:10102000206840F4E05020602878000703D520684D
:1010300040F4604020602068A96820F0F000084378
:1010400020602878C0072DD0304968680839012809
:1010500012D0022813D0032811D00968890700296B
:101060002DDA216821F0030101432160FFF7AEFC76
:10107000814641F2883A0EE009688903EFE7096882
:101080008901ECE7FFF7A2FCA0EB0901514502D969
:101090000320BDE8F0872068696800F00C00B0EB21
:1010A000810FEFD1D8F80010404601F00F01B14296
:1010B00007D90770006800F00F00B04201D001208E
:1010C000E7E72878400705D52068E96820F4E05074
:1010D000084320602878000706D52068296920F495
:1010E000604040EAC100206000F03CF82168084AF6
:1010F000C1F30311515CC840064908600020FFF7A6
:10110000D3FE0020C5E70000003C02400838024042
:10111000903D00086400002001480068704700000E
:10112000640000200448054900680968044AC1F3C6
:101130008221515CC840704764000020083802409A
:10114000A03D00080448054900680968044AC1F345
:101150004231515CC84070476400002008380240AA
:10116000A03D0008154810B5006810F00C021448A6
:1011700013D01449042A0FD0082A0ED10F4C241F73
:101180002268236802F03F025B0207D52068C0F3A3
:101190008810A0FB010106E0084610BD2168C1F3DC
:1011A0008811A1FB00010023FFF710F82168C1F3AB
:1011B0000141491C4900B0FBF1F010BD0838024064
:1011C0000024F40040787D012DE9F84F050076D029
:1011D0002878DFF8F8B2BE4CC00749D0DBF8001021
:1011E0005846C1F38101012908D00068C0F381008D
:1011F00002280AD1201D0068400206D5206880031D
:1012000036D568680028E2D032E06868B0F5803FE3
:1012100010D0B0F5A02F206810D020F480302060CE
:10122000206820F4802020606868A0B1FFF7CEFB22
:1012300006460CE0206840F48030F4E740F480205B
:101240002060F7E7FFF7C2FB801B642873D8206893
:101250008003F7D50CE0FFF7B9FB064605E000BFB9
:10126000FFF7B4FB801B6428F0D820688003F7D414
:101270002878DFF8608280074FF000093ED5DBF860
:101280000010584611F00C0F09D00068C0F381001F
:1012900002280BD18D48001F0068400206D4206848
:1012A000800715D5E868012809D111E0E868B8B1D0
:1012B0000120C8F80000FFF789FB064605E002E1BF
:1012C000FFF784FB801B0228C0D820688007F7D571
:1012D0002068296920F0F80040EAC10020600DE094
:1012E000C8F80090FFF772FB064604E0FFF76EFBBC
:1012F000801B02281FD820688007F7D428780007B1
:1013000022D5724E744869696C3671B10121016051
:10131000FFF75CFB074604E0FFF758FBC01B022801
:1013200009D830688007F7D50EE0C0F80090FFF7C5
:101330004DFB074605E083E0FFF748FBC01B022892
:101340007ED830688007F7D42878400768D5DFF862
:101350007CA100270AF1380ADAF80000C0000BD49B
:10136000DAF8001041F08051CAF80010DAF80000F5
:10137000012700F080500090584E3068C00510D40E
:10138000306840F480703060FFF720FB009005E08B
:10139000FFF71CFB0099401A022851D83068C0059D
:1013A000F6D54A4EA868683601280FD0052830685F
:1013B00010D020F001003060306820F00400306070
:1013C000A868B8B1FFF702FB00900FE0306840F06A
:1013D0000100F4E740F004003060F7E7FFF7F6FAA9
:1013E0000099411A41F28830814264D83068800700
:1013F000F4D50EE0FFF7EAFA009007E0FFF7E6FA0F
:101400000099411A41F28830814254D830688007EF
:10141000F4D42FB1DAF8001021F08051CAF800108E
:10142000A869C0B3DBF80010C1F3810102294AD0DA
:101430000228484607D0C8F86000FFF7C7FA00E066
:1014400039E005463AE04746C8F86000FFF7BEFAC3
:10145000064604E0FFF7BAFA801B02282BD8206862
:101460008001F7D4D5E907010843A96A1C4A490855
:1014700002EB01416A6A41EA8211084395F82C1097
:1014800040EA01611148001F016001203866FFF742
:101490009DFA054605E014E0FFF798FA401B022884
:1014A00009D820688001F7D50BE000BFFFF78EFA5E
:1014B000401B022802D90320BDE8F88F2068800174
:1014C000F4D40020F8E70120F6E7000008380240D5
:1014D0000038024000004742800E47420070004042
:1014E0000000FFFF4FF0E0210428086903D020F03E
:1014F00004000861704740F00400FAE7704710B537
:10150000401EB0F1807F01D3012010BD4FF0E024D8
:1015100060610F21601701F063FA0020A0610720CD
:101520002061002010BD10B5FFF7E8FF10BD704727
:10153000704730B590F83820012A20D0012280F879
:101540003820022380F8393003685C6824F0700486
:101550005C6003685C680D682C435C6003689C6891
:1015600024F080049C6003689C6849680C439C607C
:1015700080F83920002180F83810084630BD02205C
:1015800030BD10B5040003D094F8390010B107E065
:10159000012010BD002084F83800204600F00CF82F
:1015A000022084F83900211D206801F0A9FA0120E9
:1015B00084F83900002010BD00B50068124987B0DA
:1015C00088421ED111480021026842F001020260E7
:1015D000006800F0010005904FF480700090122028
:1015E000CDE901010120CDE9031069460848FFF764
:1015F00029F9002211461B20FFF7C4FC1B20FFF72E
:10160000B5FC07B000BD00000000014044380240B6
:101610000000024070B5044690F83800012817D049
:10162000012584F83850022084F839002068826847
:1016300022F0770222F47F4282600868502837D077
:101640000DDC202859D005DC88B3102841D151E0A9
:10165000022070BD302853D040283AD13FE06028A6
:101660002ED070280BD0B0F5805F03D0B0F5005FAE
:101670002FD110E02068816821F0070115E0CB68C8
:10168000D1E90121206801F08EFA2168886840F0D4
:10169000770088601DE0CB68D1E90121206801F066
:1016A00082FA2068816841F48041816011E01EE087
:1016B000CA684968206801F069FB5021206806E08B
:1016C000CA684968206801F0ABFB6021206801F01E
:1016D00074FA84F83950002084F8380070BDCA6864
:1016E0004968206801F052FB40212068EFE70021A3
:1016F0002068ECE710212068E9E720212068E6E770
:1017000030212068E3E7000010B5017E094C012973
:1017100002D0022905D008E0002100F0CCFAA06038
:1017200003E0042100F0C7FAE060A0682060E068F0
:10173000606010BD000000202DE9F041044690F8E3
:1017400038000D4601283DD0012684F8386002207B
:1017500084F83900AAB3042A46D02068082A55D054
:10176000D5E90027E968036A23F480530362D0F8BF
:101770001CC0036A2CF4407C4CEA07274FF6FF7C20
:1017800027F470470CEA013139434FF4204723F422
:10179000204307EA02321A43C16102622068C1692C
:1017A00021F44061C1612068C169AA6841EA02214F
:1017B000C0F81C1084F83960002084F83800BDE8B7
:1017C000F08101E00220FAE7D5E90012EB68206819
:1017D00001F0EEFA2068816921F00C018161206836
:1017E0008169AA6811430FE0D5E90012EB6820680F
:1017F00001F028FB2068816921F440618161206843
:101800008169AA6841EA02218161D3E7D5E9002C08
:101810002F7B016A21F480710162C169036A21F0A2
:10182000030141EA0C0121F0F00C39074FF4206765
:101830004CEA116123F4206307EA02221A43C161D2
:1018400002622068C16921F00C01C1612068C16990
:10185000AA681143ACE710B5040003D094F839002E
:1018600010B107E0012010BD002084F838002046A8
:1018700000F00CF8022084F83900211D206801F0E6
:101880003FF9012084F83900002010BD704710B5E1
:101890000268044631B1042908D0082915D00C2962
:1018A00008D116E0D06840F0020002E0D06840F0B5
:1018B0000400D0600122206801F06AF92068016804
:1018C00041F001010160002010BDD06840F0080027
:1018D000EFE7D06840F01000EBE770B50446006811
:1018E00001694FF00005C943890715D4C168C94390
:1018F000890711D4E91E01610120207620688069E2
:101900008007204602D0FFF7FFFE04E000F0D2F887
:10191000204600F08BF9257620680169C943490704
:1019200017D4C168C943490713D46FF0040101619A
:10193000022020762068806910F4407F204602D083
:10194000FFF7E2FE04E000F0B5F8204600F06EF983
:10195000257620680169C943090716D4C168C943BF
:10196000090712D46FF00801016104202076206875
:10197000C0698007204602D0FFF7C6FE04E000F0F1
:1019800099F8204600F052F9257620680169C9438C
:10199000C90617D4C168C943C90613D46FF0100132
:1019A0000161082020762068C06910F4407F20463D
:1019B00002D0FFF7A9FE04E000F07CF8204600F01A
:1019C00035F9257620680169C943C90708D1C1687E
:1019D000C943C90704D1891E0161204600F06AF994
:1019E00020680169C943090609D4C168C9430906C9
:1019F00005D46FF0800101612046FFF798FD206853
:101A00000169C943490609D4C168C943490605D4D7
:101A10006FF040010161204600F090F920680169F3
:101A2000C94389060BD4C168C943890607D46FF03E
:101A3000200101612046BDE87040FFF779BD70BD0F
:101A400070B50368002102220124154886B0B3F165
:101A5000804F05D0134E4025B3420DD100951AE0BA
:101A600020230093CDE90121CDE903144FEA0D01B4
:101A7000FEF7E8FE06B070BD0B4EB34207D10095ED
:101A8000CDE90121CDE9031269460848F0E7084D88
:101A9000AB42EFD10094CDE90121CDE90312E5E796
:101AA0000000024000040040000800400004024022
:101AB000000C0040704770B5044690F838000D46A1
:101AC00001280DD0012684F83860022084F83900FE
:101AD00042B1042A18D0082A2AD00C2A4DD139E064
:101AE000022070BD206801F071F82068816941F022
:101AF000080181612068816921F004018161206809
:101B000081692A69114311E0206801F087F8206893
:101B1000816941F4006181612068816921F48061FB
:101B20008161206881692A6941EA0221816124E09A
:101B3000206801F09FF82068C16941F00801C16187
:101B40002068C16921F00401C1612068C1692A6966
:101B5000114311E0206801F0B9F82068C16941F42F
:101B60000061C1612068C16921F48061C1612068A0
:101B7000C1692A6941EA0221C16184F83960002003
:101B800084F8380070BD10B5040003D094F8390013
:101B900010B107E0012010BD002084F83800204675
:101BA00000F00CF8022084F83900211D206800F0B4
:101BB000A7FF012084F83900002010BD08B5016896
:101BC0001648B1F1804F0BD0154A914210D10168EF
:101BD00041F002010160006800F00200009008BDC1
:101BE000016841F001010160006800F00100F5E7C3
:101BF0000C4A914207D1016841F00401016000687C
:101C000000F00400EAE7084A9142E8D1016841F097
:101C100008010160006800F00800DFE7403802407A
:101C20000004004000080040000C00407047000025
:101C300010B504460068012200F0AAFF0749206899
:101C4000884203D1416C41F400414164206801683D
:101C500041F001010160002010BD000000000140C2
:101C600010B504460068002200F092FF104B41F2CC
:101C7000111120688A10984209D1036A0B4206D1DB
:101C8000036A134203D1436C23F400434364206886
:101C9000036A0B4206D1016A114203D1016821F0A7
:101CA00001010160012084F83900002010BD00000E
:101CB00000000140704790F838300022012B0AD014
:101CC000012380F8383041B1042909D008290AD00D
:101CD0000C290DD10AE00220704701684A6B07E029
:101CE00001688A6B04E00168CA6B01E001680A6C54
:101CF000002180F838101046704770B5044690F8FF
:101D00003800012818D0012584F83850022084F8C2
:101D10003900204600F0FCFF2068C16821F0400136
:101D2000C1602068C16821F48041C16084F83950E5
:101D3000002084F8380070BD022070BD70477047E5
:101D400070B5026804461068D168536910F00F0F2F
:101D500050D003F0010501F4907635435DD0C20701
:101D600005D0CA0503D5E26B42F00102E2634207E7
:101D700005D5DA0703D0E26B42F00202E263820784
:101D800005D5DA0703D0E26B42F00402E2630207F2
:101D900005D5DA0703D0E26B42F00802E263E26B9A
:101DA000002A33D0800604D5880602D5204601F0EB
:101DB0007AF820684069E16BC0F38010090700D40D
:101DC00028B3204601F061F82068416949061AD518
:101DD000416921F040014161606BA0B11B4901657F
:101DE000606BFEF70BFD002810D0606B016DBDE845
:101DF00070400847830610D58B060ED52046BDE8F7
:101E0000704001F050B82046FFF799FF70BD2046A2
:101E1000FFF795FF0020E06370BD030606D50B06B3
:101E200004D52046BDE8704001F0DAB94006F3D58C
:101E30004806F1D5D168204621F04001D16020212B
:101E400084F8391000F010F970BD00007B2E0008F6
:101E500070B5040004D094F83900002510B106E0F4
:101E6000012070BD84F83850204600F023F824206B
:101E700084F839002068C16821F40051C16020460F
:101E800001F058F82068016921F49041016120684F
:101E9000416921F02A0141612068C16841F4005183
:101EA000C160E563202084F8390084F83A000020FE
:101EB00070BD000000B50068124987B088421FD18C
:101EC0001148016841F0100101600068694600F0A6
:101ED000100005904FF4C060009002200190012096
:101EE000029003200390072004900848FEF7AAFC04
:101EF000002211462520FFF745F82520FFF736F888
:101F000007B000BD0010014044380240000002400C
:101F100090F83A30202B1DD1D1B1CAB190F83830A9
:101F2000012B17D081628285C2850021C1632222E4
:101F300080F83A2080F8381001684A6942F00102BE
:101F40004A610068C16841F49071C1600020704727
:101F500001207047022070474FF6FF730A220249A2
:101F6000024800F005B800006C00002000020020CC
:101F70002DE9F843044690F839001F4616460D46F1
:101F8000202850D1A5B19EB194F8380001284AD03C
:101F9000012084F838004FF00008C4F83C8021206C
:101FA00084F83900FEF712FDA6848146E68426E017
:101FB0000120BDE8F883E08C401EE084A0684B4619
:101FC000B0F5805F4FF000024FF08001204600978F
:101FD00003D001F036F9E8B90DE001F032F9C8B9E3
:101FE00028882168C0F308004860206908B16D1C8A
:101FF00005E0AD1C03E0216815F8010B4860E08C9A
:102000000028D8D14B46002240212046009701F0FD
:1020100018F908B10320CCE7202084F8390084F8AF
:1020200038800020C5E70220C3E790F83930202B24
:1020300018D1A9B1A2B190F83830012B12D00162A9
:102040008284C2840021C163212280F8392080F873
:1020500038100068C16841F08001C16000207047FD
:1020600001207047022070477047FEE701684A6907
:10207000D24352050CD46FF480624A61042101649A
:10208000002140F8301F2022427301730120704765
:10209000002070472DE9F84F0446006889460B9DE3
:1020A00001689846174641F4806101602068016824
:1020B00041F48071016000954FF0011A00225146F1
:1020C00020460A9B00F0D5F8F0BB216809F0FE001D
:1020D00008610AF1010B2B46594620460A9A00F086
:1020E000F9F818B1206C042812D03AE02068416950
:1020F000806900902A4620460A9900F060F950B1A4
:10210000206C04282DD12068016841F40071016021
:102110000120BDE8F88FFEB2B8F1010F09D02168A7
:10212000380A08612A4620460A9900F048F9002832
:10213000E6D1206806612A4620460A9900F03FF958
:102140000028DDD1206800E00BE0016841F48071D7
:10215000016000950022514620460A9B00F089F854
:1021600008B10320D5E7216809F0FF0040F0010025
:1021700008612B46594620460A9A00F0ABF8002821
:10218000B0D1C6E72DE9F843044600680D46DDE905
:10219000089701689846164641F4807101604B46E5
:1021A00000224FF001112046009700F062F8E8B9D4
:1021B000216805F0FE0008613B464A461849204662
:1021C00000F088F828B1206C04280FD10120BDE868
:1021D000F88320684169806900903A464946204664
:1021E00000F0EDF820B1206C042813D00320EEE7B6
:1021F000F5B2B8F1010F09D02168300A08613A46FA
:102200004946204600F0DBF80028ECD12068056143
:102210000020DCE72068016841F400710160D5E727
:102220000200010070B516460D4604461AE020462D
:10223000FFF71CFF08B1012070BD681C12D025B14A
:10224000FEF7C4FB801BA8420CD954F8400F40F0A5
:10225000200044F8100900202060202161732073C1
:10226000032070BD20684069C0434007DFD40020D0
:1022700070BD2DE9F0471E4690460D460446C1F359
:102280000747DDF8209012E0701C10D02EB1FEF749
:102290009DFBA0EB0900B04209D9002044F8300FA3
:1022A00020216173A07320730320BDE8F0872068AC
:1022B000012F0AD0806925EA00000004000C06D036
:1022C00000214145E0D00020EFE74069F3E701211C
:1022D000F7E700002DE9F0479A4691460D4604467F
:1022E00000264FF02008C1F307472AE02068406924
:1022F000C043400512D42068016841F400710160B8
:1023000021686FF48060486104202064266384F8AB
:102310003D8084F83C600120BDE8F087B9F1FF3FC3
:102320000FD0B9F1000F05D0FEF750FBA0EB0A016A
:10233000494506D944F8306F84F80D802673032090
:10234000EAE72068012F07D0D0F8180025EA00003E
:102350000004000CE0D0C9E74069F7E72DE9F0413F
:10236000002590460E460446202721E04069C043E0
:10237000C0060CD421686FF0100048612564256305
:1023800084F83D7084F83C500120BDE8F0812EB106
:10239000FEF71CFBA0EB0800B04209D954F8400F2F
:1023A00040F0200044F80409677025700320ECE732
:1023B00020684169C9434906D8D40020E5E770B5D3
:1023C00016460D4604461AE02046FFF74FFE08B1B8
:1023D000012070BD681C12D025B1FEF7F7FA801BF2
:1023E000A8420CD954F8400F40F0200044F81009DE
:1023F00000202060202161732073032070BD2068BD
:102400004069C0430006DFD4002070BD7CB514468F
:102410000D4606466A4606213B2000F0B3F8002828
:102420000BD1BDF8001049BA3180BDF8021049BA8D
:102430002980BDF8041049BA21807CBD7CB51446C2
:102440000D4606466A460621432000F09BF8002808
:102450000BD1BDF8001049BA3180BDF8021049BA5D
:102460002980BDF8041049BA21807CBD08B56A46B0
:102470000221412000F086F8BDF8000040BA00B209
:10248000FEF75DF89FED0D1B53EC112BFDF7E8FFF8
:102490009FED0C1B53EC112BFDF7C9FE9FED0B1BA1
:1024A00053EC112BFDF76AFFFEF76DF800EE900A72
:1024B0009FED081A80EE810A08BD000000000000B0
:1024C00000407540A4703D0AD74342400000000020
:1024D000000059400000C84210B51C48FEF77CFAC5
:1024E00080216B2000F09CF800216B2000F098F810
:1024F000032000F060F8002000F058F8322000F0CF
:1025000077F80021382000F08BF800216A2000F0D5
:1025100087F80021232000F083F88021372000F085
:102520007FF8752000F014F8682801D0012010BD54
:1025300001216B2000F074F800216C2000F070F88D
:10254000322000F055F8002010BD0000800000206F
:102550001FB500218DF80C1040F6FF73012203A96E
:102560008DE80E0013460246D1210548FEF7B8FA61
:102570006420FEF755F99DF80C0004B010BD000072
:10258000800000200EB540F6FF730092CDE90113E4
:1025900002460123D1210448FEF7A2FA6420FEF787
:1025A0003FF900200EBD000080000020C006010E93
:1025B0001C2000F035B8C006010E1B2000F030B81A
:1025C000BC2801D3012110E0622801D302210CE0D4
:1025D0002A2801D3032108E0142801D3042104E0B0
:1025E0000A2801D3052100E006211A2000F018B8BE
:1025F00010B504464FF47A70844201D9044602E0D3
:10260000042C00D20424B0FBF4F0401EC1B2192007
:1026100000F006F86008BDE81040FFF7D1BF0000E9
:102620001FB540F6FF738DF80C10012203A98DE849
:102630000E0013460246D0210448FEF74FFB6420EB
:10264000FEF7EEF804B0002010BD0000800000206E
:10265000154800B5026887B0002142F08002026090
:10266000026802F080020592026842F001020260F4
:10267000026802F001020592026842F00202026062
:10268000006800F0020005900C2000900220CDE9C7
:102690000101032003900720049069460348FEF7D8
:1026A000D1F807B000BD0000303802400000024001
:1026B00010B5324890B03049016040F23F1100241B
:1026C000C0E9011440F2E731C0E903144461FEF7A8
:1026D00058FF18B147212AA000F0EDFD4FF48050BB
:1026E000099009A92548FEF795FF18B14D2124A0AE
:1026F00000F0E1FD2148FFF7AEF818B1522120A00B
:1027000000F0D9FD042004905020CDE90504079481
:1027100004A91A480894FFF7F0FA18B15C2118A030
:1027200000F0C9FD0120CDE9004002940022694675
:1027300012480394FFF700F818B1652110A000F0CB
:10274000BAFD022000900190042269460B48FEF772
:10275000F3FF18B16C210AA000F0ADFD0D940DA996
:1027600006480E94FEF7E5FE002803D0732104A06E
:1027700000F0A1FD10B010BD00000140D400002009
:102780002E2E2F5372632F74696D2E63000000008C
:1027900010B51A488AB04FF08041016040F23F11F5
:1027A0000024C0E9011440F2E731C0E90314FFF747
:1027B000EAF918B1842112A000F07DFD079407A961
:1027C0000E480894FEF7B5FE18B18B210CA000F05E
:1027D00072FD6020CDE9000402940022694607489A
:1027E0000494FFF768F918B1942105A000F063FD87
:1027F0000248FFF725F90AB010BD000010010020C3
:102800002E2E2F5372632F74696D2E63000000000B
:1028100010B51A488AB01849016040F23F110024EF
:10282000C0E9011440F2E731C0E90314FFF7ABF946
:1028300018B1A72112A000F03EFD079407A90F4888
:102840000894FEF776FE18B1AE210DA000F033FD1E
:102850006020CDE9000402940022694607480494F0
:10286000FFF729F918B1B72105A000F024FD0348AE
:10287000FFF7E6F80AB010BD000400404C0100204C
:102880002E2E2F5372632F74696D2E63000000008B
:1028900010B51A488AB01849016040F23F1100246F
:1028A000C0E9011440F2E731C0E90314FFF76BF906
:1028B00018B1CA2112A000F0FEFC079407A90F4826
:1028C0000894FEF736FE18B1D1210DA000F0F3FCFC
:1028D0006020CDE900040294002269460748049470
:1028E000FFF7E9F818B1DA2105A000F0E4FC03488D
:1028F000FFF7A6F80AB010BD0008004088010020CC
:102900002E2E2F5372632F74696D2E63000000000A
:1029100010B51A488AB01849016040F23F110024EE
:10292000C0E9011440F2E731C0E90314FFF72BF9C5
:1029300018B1ED2112A000F0BEFC079407A90F48C2
:102940000894FEF7F6FD18B1F4210DA000F0B3FCD9
:102950006020CDE9000402940022694607480494EF
:10296000FFF7A9F818B1FD2105A000F0A4FC034869
:10297000FFF766F80AB010BD000C0040C40100204B
:102980002E2E2F5372632F74696D2E63000000008A
:102990000D4810B50B4901604FF4165141600021FC
:1029A00081600C22C160C0E904128161C161FFF73E
:1029B0004FFA002805D0BDE81040422103A000F0E6
:1029C0007ABC10BD00100140000200202E2E2F53B3
:1029D00072632F75736172742E630000FEE7704797
:1029E0000907090E002806DA00F00F0000F1E020C8
:1029F00080F8141D704700F1E02080F80014704743
:102A00007047704710B5FEF72DFABDE81040FEF78D
:102A10008ABD000010B5204892B00024016841F042
:102A200080510160006800F0805011901B480168DF
:102A300021F4404141F4004101600068069400F433
:102A4000404011900220009001200390102004903B
:102A50006846FEF7B9FB00B1FEE70F20CDE90C0494
:102A60000E940F9400210CA81094FEF7BDFA00B14B
:102A7000FEE7FEF751FB4FF47A71B0FBF1F0FEF781
:102A80003EFD0420FEF72EFD00221146501EFEF7EB
:102A900079FA12B010BD00004038024000700040CA
:102AA0001048016841F4700101600F48016841F06D
:102AB000010101600C4A00210832116002680B4BD1
:102AC0001A400260031D0A4A1A60026822F480223A
:102AD000026005480C3001600249580680390860E0
:102AE0007047000088ED00E000380240FFFFF6FE6E
:102AF000103000240148FEF7F0BE0000D400002092
:102B0000F0B502681B4B1C4C9F031C4D1C4E984299
:102B100007D0B84205D0A04203D0A84201D0B042AD
:102B200004D122F0700C4A6842EA0C02984210D09C
:102B3000B8420ED0A0420CD0A8420AD0B04208D071
:102B4000104CA04205D0104CA04202D00F4CA04225
:102B500003D122F44074CA68224302608A68C262C8
:102B60000A688262984201D10969016301214161C9
:102B7000F0BD0000000001400004004000080040DB
:102B8000000C00400040014000440140004801406A
:102B900010B50123046A8B409C430462036A8A4097
:102BA0001343036210BD10B5846842EA032224F483
:102BB0007F440A432243826010BD826822F0700283
:102BC0000A4342F0070181607047000030B5026A95
:102BD00022F001020262026A4368846924F07305EC
:102BE0000C682C4322F002058A682A430A4DA84249
:102BF0000BD122F00805CA6823F440732A434D69BB
:102C000022F004021D438B692B43436084614968B1
:102C10004163026230BD00000000014030B5026A2D
:102C200022F010020262026A436884690D6824F48B
:102C3000E64444EA05248D6822F0200242EA0512A7
:102C40000B4DA8420ED1CD6822F0800242EA051257
:102C50004D6923F4406343EA85038D6922F0400205
:102C600043EA85034360846149688163026230BD41
:102C70000000014030B5026A22F480720262036AE9
:102C80004268C46923F4007324F073050C682C4374
:102C90008D6843EA05230C4DA8420ED1CD6823F47C
:102CA000006343EA05234D6922F4405242EA0512CB
:102CB0008D6923F4806342EA05124260C461496869
:102CC000C163036230BD00000000014030B5026AFC
:102CD00022F480520262046A4268C3690D6823F4D8
:102CE000E64343EA05238D6824F4005444EA05349E
:102CF000064DA84204D14D6922F4804242EA851271
:102D00004260C36149680164046230BD0000014053
:102D100030B403689A6822F070044A68224322F0B3
:102D200007040A6822439A604A6812F00F0F1FD105
:102D30001211082A1CD2DFE802F01B1B1B1B0B1D03
:102D400023040B69D1E90221006830BCFFF72BBFD7
:102D50000268136A146A24F0010414620268946918
:102D6000096924F0F00444EA0111916100680362EA
:102D700030BC70470A698968006830BC00F006B84A
:102D80000A698968006830BC00F04AB810B5036A67
:102D9000046A24F001040462846924F0F00444EA23
:102DA000021423F00A020A438461026210BD00008B
:102DB00070B5046A24F0010404628469056A134E44
:102DC000B0420ED0B0F1804F0BD0114EB04208D0BF
:102DD000104EB04205D0104EB04202D00F4EB0425D
:102DE00003D124F00304144303E024F0030242F06F
:102DF00001041A0724F0F00444EA126225F00A03E1
:102E000001F00A0119438261016270BD00000140B6
:102E10000004004000080040000C00400040014059
:102E200010B5036A23F0100303628369046A23F474
:102E3000704343EA023224F0A00343EA01118261A5
:102E4000016210BD30B5046A24F010040462846984
:102E5000056A24F4407444EA022222F470444FF6D6
:102E6000FF7202EA03322243A02425F0A00304EA01
:102E7000011119438261016230BD10B5806B0021E0
:102E8000C185C184FEF75BFF10BD0168CA6822F4EA
:102E90009072CA6001684A6922F001024A612021E9
:102EA00080F83A10704710B590F83A10222901D0F6
:102EB000022010BD8168B1F5805F11D00169002941
:102EC00001681FD0496801F07F03816A4A1C826251
:102ED0000B70C18D491E0904090CC18518D026E06C
:102EE0000269816A002A0268526805D0D2B20A805B
:102EF000816A491C8162ECE7C2F308020A80816A98
:102F0000891CF7E74A68816A4B1C83620A70E0E714
:102F10000168CA6822F49072CA6001684A6922F0A6
:102F200001024A61202180F83A10FFF715F80020CD
:102F300010BD00002DE9F04104460068016921F44C
:102F40004052E168114301612168C86849F20C628E
:102F500090432369A268E5691A4363692B431A43C6
:102F60000243CA602168486920F44072A069104396
:102F70004861E1696425B1F5004F9748974A216897
:102F80004FF032083FD0914201D081427CD1FEF710
:102F9000D9F800EBC00101EB001061688900B0FBBB
:102FA000F1F6FEF7CFF800EBC00101EB001061680D
:102FB0008900B0FBF1F0B0FBF5F06FF01801484369
:102FC00006EB800108EB0110B0FBF5F000F0F00615
:102FD000FEF7B8F800EBC00101EB00106168890052
:102FE000B0FBF1F0B0FBF5F006EB0016FEF7AAF827
:102FF00000EBC00101EB001061688900B0FBF1F744
:10300000FEF7A0F8D2E0914201D081423DD1FEF717
:1030100099F800EBC00101EB001061684900B0FBBA
:10302000F1F0B0FBF5F00601FEF78CF800EBC00103
:1030300001EB001061684900B0FBF1F7FEF782F880
:1030400000EBC00101EB001061684900B0FBF1F03A
:10305000B0FBF5F06FF01801484307EB800108EB77
:10306000C100B0FBF5F000F0F80006EB4006FEF7FB
:1030700069F800EBC00101EB001061684900B0FB8A
:10308000F1F7FEF75FF83CE055E0FEF74BF800EB98
:10309000C00101EB001061684900B0FBF1F0B0FB2A
:1030A000F5F00601FEF73EF800EBC00101EB001061
:1030B00061684900B0FBF1F7FEF734F800EBC0019E
:1030C00001EB001061684900B0FBF1F0B0FBF5F0D6
:1030D0006FF01801484307EB800108EBC100B0FB1B
:1030E000F5F000F0F80006EB4006FEF71BF800EBE9
:1030F000C00101EB001061684900B0FBF1F7FEF779
:1031000011F800EBC00101EB001061684900B0FB51
:10311000F1F0B0FBF5F06FF01801484307EB8001C8
:1031200008EBC100B0FBF5F000F007002168304467
:103130008860BDE8F081FDF7F5FF00EBC00101EB11
:10314000001061688900B0FBF1F6FDF7EBFF00EBC2
:10315000C00101EB001061688900B0FBF1F0B0FB29
:10316000F5F06FF01801484306EB800108EB011001
:10317000B0FBF5F000F0F006FDF7D4FF00EBC00166
:1031800001EB001061688900B0FBF1F0B0FBF5F0D5
:1031900006EB0016FDF7C6FF00EBC00101EB0010C7
:1031A00061688900B0FBF1F7FDF7BCFF00EBC001DF
:1031B00001EB001061688900B0FBF1F0B0FBF5F0A5
:1031C0006FF01801484307EB800108EB0110B0FBDA
:1031D000F5F000F00F00A9E70014014000100140D5
:1031E00090F83910212901D0022070478168B1F58B
:1031F000805F016A0BD04A1C026202680978516044
:10320000C18C491E0904090CC1840ED017E009883D
:103210000268C1F30801516001690029016A02D006
:10322000491C0162ECE7891CFBE70168CA6822F0CF
:103230008002CA600068C16841F04001C16000209E
:1032400070472DE9F041984617460E460446069D04
:103250001DE0681C1BD02DB1FDF7B8FBA0EB0800EA
:10326000A84214D92068C16821F4D071C1602068D7
:10327000416921F001014161202084F8390084F87E
:103280003A00002084F838000320BDE8F08120686F
:10329000006836EA000004D00020B842D9D00020EF
:1032A000F3E70120F9E700000148FEF749BD0000FF
:1032B00000020020FEE7FEE70FB4054B10B503A99E
:1032C000044A029800F0DAF810BC5DF814FB000024
:1032D000AD3B00086800002002E008C8121F08C1CA
:1032E000002AFAD170477047002001E001C1121F87
:1032F000002AFBD1704700002DE9FF5F82B000215A
:10330000DDE90430020DDDF840B0034318D044F687
:103310001050A2F2FF3242431514119801281FD019
:10332000A5EB0B00401C5FEA000A4FF000064E4F71
:10333000DFF83891B046504615D5CAF1000413E0C5
:10334000119801244AA3012801D16FEA0B010298C8
:10335000119AC0E90031C0E9024206B0BDE8F09F11
:10336000CBF10000DFE704460021404A491842EB58
:103370000450CDE9001012E0E00707D032463B468A
:1033800040464946FCF7FAFF8046894632463B46AE
:1033900010461946FCF7F2FF06460F466410002C53
:1033A000EAD1DDE90401DDE90023BAF1000F06DA14
:1033B000FCF7E4FF42464B46FCF7E0FF05E0FDF773
:1033C0004FF842464B46FDF74BF804460E460022A6
:1033D000284BFDF7E7F903D84FF0FF30014607E02F
:1033E0000022254B20463146FCF721FFFDF7C2F9AC
:1033F000102409E0002C0ADB0A220023FCF7E6FE79
:10340000039B30321A55641E50EA0102F2D1641C4B
:10341000039AC4F111031444119A012A03D0012222
:1034200008430DD10AE0084304D000204FF0110BEF
:10343000119072E7A3EB0B056D1E0DE05B4504DDFB
:103440004FF0000205F1010504E003DA4FF000023D
:10345000A5F10105002AECD002981199C0E90231CA
:10346000C0E9004579E70000000014400000F03F8B
:10347000300000000000F0430000E03F2DE9FF4F66
:1034800095B09B468946064600250FE2252877D150
:1034900000242746F84A0121059400E0044316F869
:1034A000013F203B01FA03F01042F7D130782A287F
:1034B00011D06FF02F033078A0F13002092A16D80E
:1034C000059A44F0020402EB820203EB420210442C
:1034D000761C0590EFE759F8042B0592002A03DAD1
:1034E000504244F40054059044F00204761C3078B5
:1034F0002E2816D116F8010F44F004042A280DD006
:103500006FF02F023078A0F13003092B09D807EBB8
:10351000870302EB4303C718761CF3E759F8047BD3
:10352000761C30786C280FD006DC4C2817D0682821
:103530000DD06A2814D104E0742810D07A280FD155
:103540000DE044F400140AE044F4801401E044F473
:1035500040147278824202D104F58014761C761CE5
:10356000307866280BD013DC582877D009DC002887
:1035700075D04528F6D04628F4D047281AD19DE1C9
:1035800018E0632835D0642879D0652812D195E1F8
:10359000702873D008DC6728F1D069286FD06E28B6
:1035A0000DD06F2806D1B5E073282CD0752875D0C2
:1035B000782874D05A46179990476D1C75E1C4F36A
:1035C0000250022809D003280DD0D9F80010042891
:1035D0000DD00D6009F1040967E1D9F80010EA1770
:1035E000C1E90052F6E7D9F800100D80F2E70D703E
:1035F000F0E719F8041B8DF8001000208DF8010089
:10360000EA46012003E059F804AB4FF0FF306107B0
:103610004FF0000102D40DE008F101018846B942E3
:103620000FDA8045F8DB1AF808100029F4D108E019
:1036300008F1010188468142FADB1AF808100029D6
:10364000F6D105985B46A0EB080721463846179A45
:1036500000F094FA284400EB080507E04DE029E16A
:103660000DE01AF8010B5A4617999047B8F1010876
:10367000F7D25B4621463846179A13E142E00A2208
:103680000092C4F302524FF0000A022A08D059F8FF
:1036900004CB032A4FEAEC710AD00DE029E02AE0BE
:1036A00009F1070121F00702F2E802C1914609E0A1
:1036B0000FFA8CFC4FEAEC71042A03D14FFA8CFC10
:1036C0004FEAEC71002907DA0A460021DCF1000C10
:1036D00061EB02012D2202E0220504D52B228DF898
:1036E0000420012203E0E20701D02022F7E7904600
:1036F00059E00A2102E010220DE010214FF0000AEB
:1037000000910BE010224FF0000A44F00404082757
:10371000009203E008224FF0000A0092C4F3025224
:10372000022A05D059F804CB0021032A08D009E069
:1037300009F1070121F00702F2E802C1914605E014
:103740001FFA8CFC042A01D10CF0FF0C4FF000088A
:10375000220728D5702806D0009B83F0100353EA77
:103760000A0305D00EE040228DF80420012208E073
:103770005CEA010206D030228DF804208DF80500A5
:1037800002229046009B83F0080353EA0A030AD101
:103790005CEA010201D1620705D530228DF80420D0
:1037A0004FF001087F1E582804D034A003900EA8C3
:1037B00002900DE036A0F9E753466046009AFCF708
:1037C00005FD84460398825C0298401E02900270B8
:1037D0005CEA0100F0D1029806A9081A00F1200A5B
:1037E000600702D524F4803400E00127574502DD4C
:1037F000A7EB0A0000E0002000EB0A01009005980A
:103800004144401A0590E00306D45B462146179ACE
:10381000059800F0B3F90544002706E001A85A46D0
:10382000C05D179990476D1C7F1C4745F6DBE00390
:103830000CD55B462146179A059800F09FF9054480
:1038400004E030205A46179990476D1C0099481E95
:1038500000900029F5DC08E0029802995A460078A9
:10386000491C0291179990476D1CBAF10001AAF109
:10387000010AF1DC65E10000092801003031323332
:10388000343536373839616263646566000000009C
:103890003031323334353637383941424344454686
:1038A0000000000000F058F90544761C307800282C
:1038B0007FF4ECAD19B02846BDE8F08F620700D464
:1038C000062709F1070222F0070CFCE80223E14673
:1038D00003F000485FEA080C02D00FF2702C0DE0F4
:1038E0005FEA045C02D50FF2682C07E05FEAC47C53
:1038F00002D00FF2602C01E0AFF2700C4FF0FF38F5
:1039000023F00043CDF850C065280CD006DC4528D4
:1039100009D046281DD047283DD13DE0662818D063
:1039200067287ED138E00021112F01DB112000E053
:10393000781CCDE9000106A90EA8FFF7DDFCDDE942
:103940000F010E9A03910021009207F1010A0491E0
:103950004DE04FF000400097CDE9011006A90EA8F8
:10396000FFF7CAFCDDE90F0203920E9B11990022BA
:10397000DDF80CA00093049211B9791C00EB010A48
:10398000B7EB0A0004D4C0F1FF3007F1010A04903C
:10399000AAEB0700019044E0012F00DA0127002183
:1039A000112F01DD112000E03846CDE9000106A904
:1039B0000EA8FFF7A1FCDDE90F010E9A039100218B
:1039C00004910092BA4621070CD40399514500DABC
:1039D0008A46BAF1010F05DD009AAAF10101515C96
:1039E000302908D0B84202DA10F1040F06DA0121BA
:1039F000CDE9011015E0AAF10101E9E7002805DC95
:103A0000049901440491AAEB000102E0411C5145D4
:103A100000DD8A460499401A401C01904FF0004096
:103A20000290200704D40198504501DBCDF80480B2
:103A300000208DF84F0002980DF14F07B0F1004FB4
:103A400025D02B200E9002984FF0020800280CDAA7
:103A5000404202902D200E9007E00A210298FCF7C8
:103A6000AEFD3031029007F8011DB8F10001A8F158
:103A70000108F2DC02980028EFD1791E0E98087038
:103A8000307800F0200040F0450007F8020D12A841
:103A9000C01B00F107081498007800B1012000EB6A
:103AA0000A01019801EBE07105984144401A401E5B
:103AB0000590E00306D45B462146179A059800F06E
:103AC0005DF805441498007818B15A461799904744
:103AD0006D1CE00324D55B462146179A059800F03B
:103AE0004DF805441CE00498002807DBDDE90301DC
:103AF000884203DD0098405C179901E01799302057
:103B00005A469047049805F10105401C049001981D
:103B1000401E019004D12E205A46179990476D1CE3
:103B2000BAF10001AAF1010ADDDC05E017F8010B8A
:103B30005A46179990476D1CB8F10001A8F1010889
:103B4000F4DC5B462146179A0598ABE62D00000091
:103B50002B000000200000002DE9F0410446002564
:103B60001E461746880404D405E039462020B04795
:103B70006D1C641EF9D52846BDE8F0812DE9F041A1
:103B8000044600251E469046C80301D5302700E0B4
:103B90002027880404D505E041463846B0476D1C0F
:103BA000641EF9D52846BDE8F081000013B54FF634
:103BB000FF73012269460248FEF7DAF900981CBD3E
:103BC000000200200024FDF755F9FEF723FFFEF761
:103BD0003FFDFEF79DFEFEF7DBFDFEF719FEFEF74B
:103BE00057FEFEF765FDFEF7D3FE47224C494D48D0
:103BF000FEF71BFA0A224C494A48FEF789F932209F
:103C000046077063494908604949086049490860A6
:103C100000214948FEF70CF800214848FEF708F853
:103C200000214748FEF704F800214648FEF700F857
:103C300000214548FDF72BFE04214348FDF727FEF0
:103C400041F28830FCF7ECFD00213B48FEF708F814
:103C500000213A48FEF704F800213A48FEF700F840
:103C600000213748FDF7FCFF00213348FDF7E0FF56
:103C700000213248FDF7DCFF00213148FDF7D8FF75
:103C800000213048FDF7D4FFFEF726FCFEF7EEFBDF
:103C90005A46114610EE105A0846FEF7CFFB5A4618
:103CA00011460846FEF7B2FB1D4FDFF88080DFF8B3
:103CB0008090DFF880A0103FA8F10408A9F1040962
:103CC000AAF1040A786881B27163C8F80010C9F8D3
:103CD0000010CAF80010192C04D0641C1420FCF742
:103CE0009FFDEFE719A0FFF7E7FA00242846FCF74D
:103CF00037FC41EC100B18A053EC102BFFF7DCFA4B
:103D0000BBF9003018A01A461946FFF7D5FABBF9DF
:103D100000301AA01A461946FFF7CEFADEE7000077
:103D200010000020000200206C0000203804004039
:103D300038080040380C0040100100204C010020E1
:103D4000C401002088010020D4000020647574792B
:103D50003A25640A0000000074656D706572617434
:103D60007572653A25660A0067783A25640A6779AC
:103D70003A25640A677A3A25640A000061783A2590
:103D8000640A61793A25640A617A3A25640A000076
:103D900000000000000000000102030406070809FB
:103DA0000000000001020304C83D000800000020DC
:103DB0006C000000D8320008343E00086C0000207F
:103DC000D4050000E83200080000000000000000F8
:103DD00000000000000000000D0A2A2A2A2A2A2AD0
:103DE0005541525420636F6D6D75636974696F6ED0
:103DF000207573696E672049542A2A2A2A2A2A0DB7
:103E00000A506C6561736520656E7465722031308F
:103E100020636861726163746572733A0D0A000011
:103E20000100000010000000000000000024F40069
:043E3000000000008E
:040000050800019559
:00000001FF
